{
  "contractName": "FITHTokenSaleRefAndPromo",
  "abi": [
    {
      "constant": false,
      "inputs": [
        {
          "name": "_referralPercent",
          "type": "uint256"
        }
      ],
      "name": "updateReferralPercent",
      "outputs": [],
      "payable": false,
      "stateMutability": "nonpayable",
      "type": "function",
      "signature": "0x1abe8906"
    },
    {
      "constant": true,
      "inputs": [],
      "name": "orFeedContractAddress",
      "outputs": [
        {
          "name": "",
          "type": "address"
        }
      ],
      "payable": false,
      "stateMutability": "view",
      "type": "function",
      "signature": "0x21f48972"
    },
    {
      "constant": true,
      "inputs": [],
      "name": "referralPercent",
      "outputs": [
        {
          "name": "",
          "type": "uint256"
        }
      ],
      "payable": false,
      "stateMutability": "view",
      "type": "function",
      "signature": "0x343dfb7e"
    },
    {
      "constant": false,
      "inputs": [
        {
          "name": "_numberOfTokens",
          "type": "uint256"
        }
      ],
      "name": "buyTokens",
      "outputs": [],
      "payable": true,
      "stateMutability": "payable",
      "type": "function",
      "signature": "0x3610724e"
    },
    {
      "constant": false,
      "inputs": [],
      "name": "endSale",
      "outputs": [],
      "payable": false,
      "stateMutability": "nonpayable",
      "type": "function",
      "signature": "0x380d831b"
    },
    {
      "constant": true,
      "inputs": [],
      "name": "usdtContractAddress",
      "outputs": [
        {
          "name": "",
          "type": "address"
        }
      ],
      "payable": false,
      "stateMutability": "view",
      "type": "function",
      "signature": "0x388c54de"
    },
    {
      "constant": true,
      "inputs": [
        {
          "name": "",
          "type": "address"
        }
      ],
      "name": "ethBalances",
      "outputs": [
        {
          "name": "",
          "type": "uint256"
        }
      ],
      "payable": false,
      "stateMutability": "view",
      "type": "function",
      "signature": "0x3cfba0e3"
    },
    {
      "constant": true,
      "inputs": [],
      "name": "tokensSold",
      "outputs": [
        {
          "name": "",
          "type": "uint256"
        }
      ],
      "payable": false,
      "stateMutability": "view",
      "type": "function",
      "signature": "0x518ab2a8"
    },
    {
      "constant": true,
      "inputs": [],
      "name": "tokenContract",
      "outputs": [
        {
          "name": "",
          "type": "address"
        }
      ],
      "payable": false,
      "stateMutability": "view",
      "type": "function",
      "signature": "0x55a373d6"
    },
    {
      "constant": true,
      "inputs": [
        {
          "name": "",
          "type": "address"
        }
      ],
      "name": "usdtBalances",
      "outputs": [
        {
          "name": "",
          "type": "uint256"
        }
      ],
      "payable": false,
      "stateMutability": "view",
      "type": "function",
      "signature": "0x582489cb"
    },
    {
      "constant": true,
      "inputs": [],
      "name": "tokensAvailable",
      "outputs": [
        {
          "name": "",
          "type": "uint256"
        }
      ],
      "payable": false,
      "stateMutability": "view",
      "type": "function",
      "signature": "0x60659a92"
    },
    {
      "constant": false,
      "inputs": [
        {
          "name": "_tokenPrice",
          "type": "uint256"
        }
      ],
      "name": "updateTokenPrice",
      "outputs": [],
      "payable": false,
      "stateMutability": "nonpayable",
      "type": "function",
      "signature": "0x676c0d77"
    },
    {
      "constant": true,
      "inputs": [],
      "name": "referralTokensSpent",
      "outputs": [
        {
          "name": "",
          "type": "uint256"
        }
      ],
      "payable": false,
      "stateMutability": "view",
      "type": "function",
      "signature": "0x7f510ac0"
    },
    {
      "constant": true,
      "inputs": [],
      "name": "tokenPrice",
      "outputs": [
        {
          "name": "",
          "type": "uint256"
        }
      ],
      "payable": false,
      "stateMutability": "view",
      "type": "function",
      "signature": "0x7ff9b596"
    },
    {
      "constant": true,
      "inputs": [],
      "name": "owner",
      "outputs": [
        {
          "name": "",
          "type": "address"
        }
      ],
      "payable": false,
      "stateMutability": "view",
      "type": "function",
      "signature": "0x8da5cb5b"
    },
    {
      "constant": false,
      "inputs": [
        {
          "name": "tokenAddress",
          "type": "address"
        },
        {
          "name": "tokens",
          "type": "uint256"
        }
      ],
      "name": "recoverAnyERC20Token",
      "outputs": [
        {
          "name": "ok",
          "type": "bool"
        }
      ],
      "payable": false,
      "stateMutability": "nonpayable",
      "type": "function",
      "signature": "0xa50d4005"
    },
    {
      "constant": true,
      "inputs": [],
      "name": "ethDiscountPercent",
      "outputs": [
        {
          "name": "",
          "type": "uint256"
        }
      ],
      "payable": false,
      "stateMutability": "view",
      "type": "function",
      "signature": "0xd6cf41db"
    },
    {
      "constant": true,
      "inputs": [],
      "name": "oneEthAsWei",
      "outputs": [
        {
          "name": "",
          "type": "uint256"
        }
      ],
      "payable": false,
      "stateMutability": "view",
      "type": "function",
      "signature": "0xd6f6960a"
    },
    {
      "inputs": [
        {
          "name": "_tokenContract",
          "type": "address"
        },
        {
          "name": "_tokenPrice",
          "type": "uint256"
        },
        {
          "name": "_usdStableCoinContract",
          "type": "address"
        },
        {
          "name": "_orFeedContract",
          "type": "address"
        }
      ],
      "payable": false,
      "stateMutability": "nonpayable",
      "type": "constructor",
      "signature": "constructor"
    },
    {
      "payable": true,
      "stateMutability": "payable",
      "type": "fallback"
    },
    {
      "anonymous": false,
      "inputs": [
        {
          "indexed": true,
          "name": "admin",
          "type": "address"
        },
        {
          "indexed": false,
          "name": "newEthDiscountPercent",
          "type": "uint256"
        }
      ],
      "name": "EthDiscountPercentUpdated",
      "type": "event",
      "signature": "0x0bdf46a0551aaf697b676c0d5475ad5a0e317d259ae9bf7db1592b50616dda4e"
    },
    {
      "anonymous": false,
      "inputs": [
        {
          "indexed": true,
          "name": "from",
          "type": "address"
        },
        {
          "indexed": false,
          "name": "tokens",
          "type": "uint256"
        }
      ],
      "name": "USDTDeposit",
      "type": "event",
      "signature": "0xe70fe278f4919a509a3ef5a264e8095dd19c9b5ecde292a646a5f1922c2c123a"
    },
    {
      "anonymous": false,
      "inputs": [
        {
          "indexed": true,
          "name": "from",
          "type": "address"
        },
        {
          "indexed": false,
          "name": "tokens",
          "type": "uint256"
        }
      ],
      "name": "USDTWithdrawal",
      "type": "event",
      "signature": "0x8aecc60216d270983fb32647a0faede4bc6b788d6f261a0c1cd3a215061e7544"
    },
    {
      "anonymous": false,
      "inputs": [
        {
          "indexed": true,
          "name": "user",
          "type": "address"
        },
        {
          "indexed": false,
          "name": "ethWei",
          "type": "uint256"
        },
        {
          "indexed": false,
          "name": "usdtCost",
          "type": "uint256"
        }
      ],
      "name": "PromoEthBought",
      "type": "event",
      "signature": "0x7c4be580b319dcdea3f31c41d2a51fbf5b1afa5b24db213d1e00e96af1777da8"
    },
    {
      "anonymous": false,
      "inputs": [
        {
          "indexed": true,
          "name": "_buyer",
          "type": "address"
        },
        {
          "indexed": true,
          "name": "_referer",
          "type": "address"
        },
        {
          "indexed": false,
          "name": "_refererTokens",
          "type": "uint256"
        }
      ],
      "name": "ReferralTokens",
      "type": "event",
      "signature": "0x93e85bd1fc723a7afcbf391dbe77b3eb9eee8426f16e09687b58251274bd73b6"
    },
    {
      "anonymous": false,
      "inputs": [
        {
          "indexed": false,
          "name": "_admin",
          "type": "address"
        },
        {
          "indexed": false,
          "name": "_referralPercent",
          "type": "uint256"
        }
      ],
      "name": "ReferralTokenPercentUpdate",
      "type": "event",
      "signature": "0x3ccd72f0e0af595b60e0cc9af6ecf8af632f3ddee21b680b1b86a578ec99bd02"
    },
    {
      "anonymous": false,
      "inputs": [
        {
          "indexed": false,
          "name": "_buyer",
          "type": "address"
        },
        {
          "indexed": false,
          "name": "_amount",
          "type": "uint256"
        },
        {
          "indexed": false,
          "name": "_tokensSold",
          "type": "uint256"
        }
      ],
      "name": "TokensBought",
      "type": "event",
      "signature": "0x8442948036198f1146d3a63c3db355d7e0295c2cc5676c755990445da4fdc1c9"
    },
    {
      "anonymous": false,
      "inputs": [
        {
          "indexed": false,
          "name": "_admin",
          "type": "address"
        },
        {
          "indexed": false,
          "name": "_tokenPrice",
          "type": "uint256"
        }
      ],
      "name": "TokenPriceUpdate",
      "type": "event",
      "signature": "0x0fd676231a7567664039111533b8f8d5e95e67c3ee0168864ceb04c90077741e"
    },
    {
      "constant": false,
      "inputs": [
        {
          "name": "_orFeedContract",
          "type": "address"
        }
      ],
      "name": "setOrFeedAddress",
      "outputs": [
        {
          "name": "",
          "type": "bool"
        }
      ],
      "payable": false,
      "stateMutability": "nonpayable",
      "type": "function",
      "signature": "0x37fb6e76"
    },
    {
      "constant": true,
      "inputs": [],
      "name": "getEthUsdPrice",
      "outputs": [
        {
          "name": "",
          "type": "uint256"
        }
      ],
      "payable": false,
      "stateMutability": "view",
      "type": "function",
      "signature": "0xa0a8045e"
    },
    {
      "constant": true,
      "inputs": [
        {
          "name": "ethWeiAmount",
          "type": "uint256"
        }
      ],
      "name": "getEthWeiAmountPrice",
      "outputs": [
        {
          "name": "",
          "type": "uint256"
        }
      ],
      "payable": false,
      "stateMutability": "view",
      "type": "function",
      "signature": "0x16668eae"
    },
    {
      "constant": false,
      "inputs": [
        {
          "name": "newEthDiscountPercent",
          "type": "uint256"
        }
      ],
      "name": "updateEthDiscountPercent",
      "outputs": [
        {
          "name": "",
          "type": "bool"
        }
      ],
      "payable": false,
      "stateMutability": "nonpayable",
      "type": "function",
      "signature": "0xa9dac9cc"
    },
    {
      "constant": true,
      "inputs": [
        {
          "name": "user",
          "type": "address"
        }
      ],
      "name": "fithBalanceOf",
      "outputs": [
        {
          "name": "",
          "type": "uint256"
        }
      ],
      "payable": false,
      "stateMutability": "view",
      "type": "function",
      "signature": "0xc4479030"
    },
    {
      "constant": false,
      "inputs": [
        {
          "name": "from",
          "type": "address"
        },
        {
          "name": "tokens",
          "type": "uint256"
        }
      ],
      "name": "depositUSDTAfterApproval",
      "outputs": [
        {
          "name": "",
          "type": "bool"
        }
      ],
      "payable": false,
      "stateMutability": "nonpayable",
      "type": "function",
      "signature": "0x076d1604"
    },
    {
      "constant": false,
      "inputs": [
        {
          "name": "tokens",
          "type": "uint256"
        }
      ],
      "name": "withdrawUSDT",
      "outputs": [
        {
          "name": "",
          "type": "bool"
        }
      ],
      "payable": false,
      "stateMutability": "nonpayable",
      "type": "function",
      "signature": "0x3ea521ef"
    },
    {
      "constant": true,
      "inputs": [
        {
          "name": "ethWei",
          "type": "uint256"
        }
      ],
      "name": "checkEthWeiPromoCost",
      "outputs": [
        {
          "name": "",
          "type": "uint256"
        }
      ],
      "payable": false,
      "stateMutability": "view",
      "type": "function",
      "signature": "0x7f51ee0a"
    },
    {
      "constant": true,
      "inputs": [
        {
          "name": "ethWei",
          "type": "uint256"
        }
      ],
      "name": "calculateEthWeiCost",
      "outputs": [
        {
          "name": "",
          "type": "uint256"
        }
      ],
      "payable": false,
      "stateMutability": "view",
      "type": "function",
      "signature": "0xa02a1451"
    },
    {
      "constant": true,
      "inputs": [
        {
          "name": "usdt",
          "type": "uint256"
        }
      ],
      "name": "calculateUSDTWithDiscount",
      "outputs": [
        {
          "name": "",
          "type": "uint256"
        }
      ],
      "payable": false,
      "stateMutability": "view",
      "type": "function",
      "signature": "0x78fbb33f"
    },
    {
      "constant": false,
      "inputs": [
        {
          "name": "ethWei",
          "type": "uint256"
        }
      ],
      "name": "buyEthAtDiscount",
      "outputs": [
        {
          "name": "",
          "type": "bool"
        }
      ],
      "payable": false,
      "stateMutability": "nonpayable",
      "type": "function",
      "signature": "0x2c1326ce"
    }
  ],
  "bytecode": "0x608060405260056004556000600555670de0b6b3a764000060085561138860095534801561002c57600080fd5b50604051608080611f5c833981016040908152815160208301519183015160609093015160008054600160a060020a031916331781559193918490849082908290811161010057604080517f08c379a000000000000000000000000000000000000000000000000000000000815260206004820152602660248201527f5f746f6b656e50726963652067726561746572207468616e207a65726f20726560448201527f7175697265640000000000000000000000000000000000000000000000000000606482015290519081900360840190fd5b60018054600160a060020a0319908116600160a060020a0394851617909155600291909155600680548216968316969096179095556007805490951693169290921790925550611e01925082915061015b90506000396000f3006080604052600436106101745763ffffffff7c0100000000000000000000000000000000000000000000000000000000600035041663076d1604811461021c57806316668eae146102545780631abe89061461027e57806321f48972146102985780632c1326ce146102c9578063343dfb7e146102e15780633610724e146102f657806337fb6e7614610301578063380d831b14610322578063388c54de146103375780633cfba0e31461034c5780633ea521ef1461036d578063518ab2a81461038557806355a373d61461039a578063582489cb146103af57806360659a92146103d0578063676c0d77146103e557806378fbb33f146103fd5780637f510ac0146104155780637f51ee0a1461042a5780637ff9b596146104425780638da5cb5b14610457578063a02a14511461046c578063a0a8045e14610484578063a50d400514610499578063a9dac9cc146104bd578063c4479030146104d5578063d6cf41db146104f6578063d6f6960a1461050b575b600080606061018e6002543461052090919063ffffffff16565b9250600091506000368080601f01602080910402602001604051908101604052809392919081815260200183838082843782019150505050505090506004815111156101dc57601481015191505b6101e6838361058c565b50336000908152600a6020526040902054610207903463ffffffff61084216565b336000908152600a6020526040902055505050005b34801561022857600080fd5b50610240600160a060020a03600435166024356108a3565b604080519115158252519081900360200190f35b34801561026057600080fd5b5061026c600435610a21565b60408051918252519081900360200190f35b34801561028a57600080fd5b50610296600435610b5e565b005b3480156102a457600080fd5b506102ad610cbf565b60408051600160a060020a039092168252519081900360200190f35b3480156102d557600080fd5b50610240600435610cce565b3480156102ed57600080fd5b5061026c610ea7565b610296600435610ead565b34801561030d57600080fd5b50610240600160a060020a0360043516610f15565b34801561032e57600080fd5b50610296610ffe565b34801561034357600080fd5b506102ad61123a565b34801561035857600080fd5b5061026c600160a060020a0360043516611249565b34801561037957600080fd5b5061024060043561125b565b34801561039157600080fd5b5061026c611432565b3480156103a657600080fd5b506102ad611438565b3480156103bb57600080fd5b5061026c600160a060020a0360043516611447565b3480156103dc57600080fd5b5061026c611459565b3480156103f157600080fd5b506102966004356114ef565b34801561040957600080fd5b5061026c60043561161c565b34801561042157600080fd5b5061026c61163d565b34801561043657600080fd5b5061026c600435611643565b34801561044e57600080fd5b5061026c6116e7565b34801561046357600080fd5b506102ad6116ed565b34801561047857600080fd5b5061026c6004356116fc565b34801561049057600080fd5b5061026c611707565b3480156104a557600080fd5b50610240600160a060020a0360043516602435611817565b3480156104c957600080fd5b506102406004356118f5565b3480156104e157600080fd5b5061026c600160a060020a0360043516611a96565b34801561050257600080fd5b5061026c611b01565b34801561051757600080fd5b5061026c611b07565b6000808211610579576040805160e560020a62461bcd02815260206004820152601f60248201527f536166654d6174684c69622e6469763a2072657175697265642062203e203000604482015290519081900360640190fd5b818381151561058457fe5b049392505050565b600080600061059a85611b0d565b15156105f0576040805160e560020a62461bcd02815260206004820152601760248201527f5f627579546f6b656e732062617365206661696c656421000000000000000000604482015290519081900360640190fd5b6000600160a060020a038516111561083757839150600160a060020a038216331415610666576040805160e560020a62461bcd02815260206004820152601160248201527f526566657265722069732073656e646572000000000000000000000000000000604482015290519081900360640190fd5b61068c606461068060045488611cbf90919063ffffffff16565b9063ffffffff61052016565b905080610697611459565b10156106ed576040805160e560020a62461bcd02815260206004820152601c60248201527f696e73756666696369656e7420726566657272616c20746f6b656e7300000000604482015290519081900360640190fd5b6001546040805160e060020a63a9059cbb028152600160a060020a038581166004830152602482018590529151919092169163a9059cbb9160448083019260209291908290030181600087803b15801561074657600080fd5b505af115801561075a573d6000803e3d6000fd5b505050506040513d602081101561077057600080fd5b505115156107ee576040805160e560020a62461bcd02815260206004820152602160248201527f5472616e7366657220746f6b656e7320746f2072656665726572206661696c6560448201527f6400000000000000000000000000000000000000000000000000000000000000606482015290519081900360840190fd5b6005805482019055604080518281529051600160a060020a0384169133917f93e85bd1fc723a7afcbf391dbe77b3eb9eee8426f16e09687b58251274bd73b69181900360200190a35b506001949350505050565b8181018281101561089d576040805160e560020a62461bcd02815260206004820181905260248201527f536166654d6174684c69622e6164643a2072657175697265642063203e3d2061604482015290519081900360640190fd5b92915050565b600654604080517f23b872dd000000000000000000000000000000000000000000000000000000008152600160a060020a03858116600483015230602483015260448201859052915160009392909216916323b872dd9160648082019260209290919082900301818787803b15801561091b57600080fd5b505af115801561092f573d6000803e3d6000fd5b505050506040513d602081101561094557600080fd5b5051151561099d576040805160e560020a62461bcd02815260206004820152601f60248201527f6465706f736974555344544166746572417070726f76616c206661696c656400604482015290519081900360640190fd5b600160a060020a0383166000908152600b60205260409020546109c6908363ffffffff61084216565b600160a060020a0384166000818152600b6020908152604091829020939093558051858152905191927fe70fe278f4919a509a3ef5a264e8095dd19c9b5ecde292a646a5f1922c2c123a92918290030190a250600192915050565b60078054604080517f667e9394000000000000000000000000000000000000000000000000000000008152606481018590526080600480830191909152600360848301527f455448000000000000000000000000000000000000000000000000000000000060a483015260c0602483015260c48201527f555344540000000000000000000000000000000000000000000000000000000060e482015261010060448201526101048101939093527f44454641554c540000000000000000000000000000000000000000000000000061012484015251600092600160a060020a039092169163667e93949161014480830192602092919082900301818787803b158015610b2c57600080fd5b505af1158015610b40573d6000803e3d6000fd5b505050506040513d6020811015610b5657600080fd5b505192915050565b600054600160a060020a03163314610bae576040805160e560020a62461bcd02815260206004820152600e6024820152600080516020611db6833981519152604482015290519081900360640190fd5b600081118015610bbf575060648111155b8015610bcd57506004548114155b1515610c70576040805160e560020a62461bcd028152602060048201526044602482018190527f526566657272616c2070657263656e74206d75737420626520696e2028302c31908201527f30305d2072616e676520616e6420646966666572656e74207468616e2063757260648201527f72656e7400000000000000000000000000000000000000000000000000000000608482015290519081900360a40190fd5b600481905560005460408051600160a060020a0390921682526020820183905280517f3ccd72f0e0af595b60e0cc9af6ecf8af632f3ddee21b680b1b86a578ec99bd029281900390910190a150565b600754600160a060020a031681565b336000908152600a60205260408120548190831115610d37576040805160e560020a62461bcd02815260206004820181905260248201527f45746850726f6d6f2f6574682d70726f6d6f2d6c696d69742d72656163686564604482015290519081900360640190fd5b610d4083611643565b905060008111610d9a576040805160e560020a62461bcd02815260206004820152601960248201527f45746850726f6d6f2f75736474436f73742d69732d7a65726f00000000000000604482015290519081900360640190fd5b336000908152600b6020526040902054610dba908263ffffffff611d5516565b336000908152600b6020526040808220929092558054600160a060020a031681522054610ded908263ffffffff61084216565b60008054600160a060020a03168152600b6020908152604080832093909355338252600a90522054610e25908463ffffffff611d5516565b336000818152600a6020526040808220939093559151909185156108fc02918691818181858888f19350505050158015610e63573d6000803e3d6000fd5b506040805184815260208101839052815133927f7c4be580b319dcdea3f31c41d2a51fbf5b1afa5b24db213d1e00e96af1777da8928290030190a250600192915050565b60045481565b60025481023414610f08576040805160e560020a62461bcd02815260206004820152601a60248201527f496e636f7272656374206e756d626572206f6620746f6b656e73000000000000604482015290519081900360640190fd5b610f1181611b0d565b5050565b60008054600160a060020a03163314610f66576040805160e560020a62461bcd02815260206004820152600e6024820152600080516020611db6833981519152604482015290519081900360640190fd5b600754600160a060020a0383811691161415610fcc576040805160e560020a62461bcd02815260206004820152601b60248201527f4e6577206f726665656420616464726573732072657175697265640000000000604482015290519081900360640190fd5b5060078054600160a060020a03831673ffffffffffffffffffffffffffffffffffffffff199091161790556001919050565b600054600160a060020a0316331461104e576040805160e560020a62461bcd02815260206004820152600e6024820152600080516020611db6833981519152604482015290519081900360640190fd5b60015460008054604080517f70a082310000000000000000000000000000000000000000000000000000000081523060048201529051600160a060020a039485169463a9059cbb9493169285926370a082319260248083019360209383900390910190829087803b1580156110c257600080fd5b505af11580156110d6573d6000803e3d6000fd5b505050506040513d60208110156110ec57600080fd5b5051604080517c010000000000000000000000000000000000000000000000000000000063ffffffff8616028152600160a060020a03909316600484015260248301919091525160448083019260209291908290030181600087803b15801561115457600080fd5b505af1158015611168573d6000803e3d6000fd5b505050506040513d602081101561117e57600080fd5b505115156111fc576040805160e560020a62461bcd02815260206004820152603160248201527f5472616e7366657220746f6b656e2d73616c6520746f6b656e2062616c616e6360448201527f6520746f206f776e6572206661696c6564000000000000000000000000000000606482015290519081900360840190fd5b60008054604051600160a060020a0390911691303180156108fc02929091818181858888f19350505050158015611237573d6000803e3d6000fd5b50565b600654600160a060020a031681565b600a6020526000908152604090205481565b336000908152600b60205260408120548211156112e8576040805160e560020a62461bcd02815260206004820152602260248201527f45746850726f6d6f2f696e73756666696369656e742d555344542d62616c616e60448201527f6365000000000000000000000000000000000000000000000000000000000000606482015290519081900360840190fd5b6006546040805160e060020a63a9059cbb028152336004820152602481018590529051600160a060020a039092169163a9059cbb916044808201926020929091908290030181600087803b15801561133f57600080fd5b505af1158015611353573d6000803e3d6000fd5b505050506040513d602081101561136957600080fd5b505115156113c1576040805160e560020a62461bcd02815260206004820152601d60248201527f45746850726f6d6f2f555344542e7472616e73666572206661696c6564000000604482015290519081900360640190fd5b336000908152600b60205260409020546113e1908363ffffffff611d5516565b336000818152600b6020908152604091829020939093558051858152905191927f8aecc60216d270983fb32647a0faede4bc6b788d6f261a0c1cd3a215061e754492918290030190a2506001919050565b60035481565b600154600160a060020a031681565b600b6020526000908152604090205481565b600154604080517f70a082310000000000000000000000000000000000000000000000000000000081523060048201529051600092600160a060020a0316916370a0823191602480830192602092919082900301818787803b1580156114be57600080fd5b505af11580156114d2573d6000803e3d6000fd5b505050506040513d60208110156114e857600080fd5b5051905090565b600054600160a060020a0316331461153f576040805160e560020a62461bcd02815260206004820152600e6024820152600080516020611db6833981519152604482015290519081900360640190fd5b60008111801561155157506002548114155b15156115cd576040805160e560020a62461bcd02815260206004820152602481018290527f546f6b656e207072696365206d7573742062652067726561746572207468616e60448201527f207a65726f20616e6420646966666572656e74207468616e2063757272656e74606482015290519081900360840190fd5b600281905560005460408051600160a060020a0390921682526020820183905280517f0fd676231a7567664039111533b8f8d5e95e67c3ee0168864ceb04c90077741e9281900390910190a150565b600061089d6127106106806009546127100385611cbf90919063ffffffff16565b60055481565b6000806000611650611707565b9150600082116116aa576040805160e560020a62461bcd02815260206004820152601960248201527f45746850726f6d6f2f65746850726963652d69732d7a65726f00000000000000604482015290519081900360640190fd5b6116df612710610680600854610680600954612710036116d3888b611cbf90919063ffffffff16565b9063ffffffff611cbf16565b949350505050565b60025481565b600054600160a060020a031681565b600061089d82610a21565b60078054600854604080517f667e939400000000000000000000000000000000000000000000000000000000815260648101929092526080600480840191909152600360848401527f455448000000000000000000000000000000000000000000000000000000000060a484015260c0602484015260c48301527f555344540000000000000000000000000000000000000000000000000000000060e483015261010060448301526101048201939093527f44454641554c54000000000000000000000000000000000000000000000000006101248201529151600092600160a060020a039092169163667e93949161014480830192602092919082900301818787803b1580156114be57600080fd5b60008054600160a060020a03163314611868576040805160e560020a62461bcd02815260206004820152600e6024820152600080516020611db6833981519152604482015290519081900360640190fd5b600080546040805160e060020a63a9059cbb028152600160a060020a0392831660048201526024810186905290519186169263a9059cbb926044808401936020939083900390910190829087803b1580156118c257600080fd5b505af11580156118d6573d6000803e3d6000fd5b505050506040513d60208110156118ec57600080fd5b50519392505050565b60008054600160a060020a03163314611946576040805160e560020a62461bcd02815260206004820152600e6024820152600080516020611db6833981519152604482015290519081900360640190fd5b6009548214156119c6576040805160e560020a62461bcd02815260206004820152602260248201527f45746850726f6d6f2f73616d652d6574682d646973636f756e742d706572636560448201527f6e74000000000000000000000000000000000000000000000000000000000000606482015290519081900360840190fd5b6000821180156119d7575061271082105b1515611a53576040805160e560020a62461bcd02815260206004820152602a60248201527f45746850726f6d6f2f6574682d646973636f756e742d70657263656e742d6f7560448201527f742d6f662d72616e676500000000000000000000000000000000000000000000606482015290519081900360840190fd5b600982905560408051838152905133917f0bdf46a0551aaf697b676c0d5475ad5a0e317d259ae9bf7db1592b50616dda4e919081900360200190a2506001919050565b600154604080517f70a08231000000000000000000000000000000000000000000000000000000008152600160a060020a038481166004830152915160009392909216916370a082319160248082019260209290919082900301818787803b158015610b2c57600080fd5b60095481565b60085481565b600081611b18611459565b1015611b94576040805160e560020a62461bcd02815260206004820152602a60248201527f696e73756666696369656e7420746f6b656e73206f6e20746f6b656e2d73616c60448201527f6520636f6e747261637400000000000000000000000000000000000000000000606482015290519081900360840190fd5b6001546040805160e060020a63a9059cbb028152336004820152602481018590529051600160a060020a039092169163a9059cbb916044808201926020929091908290030181600087803b158015611beb57600080fd5b505af1158015611bff573d6000803e3d6000fd5b505050506040513d6020811015611c1557600080fd5b50511515611c6d576040805160e560020a62461bcd02815260206004820152601f60248201527f5472616e7366657220746f6b656e7320746f206275796572206661696c656400604482015290519081900360640190fd5b60038054830190819055604080513381526020810185905280820192909252517f8442948036198f1146d3a63c3db355d7e0295c2cc5676c755990445da4fdc1c99181900360600190a1506001919050565b818102821580611cd95750818382811515611cd657fe5b04145b151561089d576040805160e560020a62461bcd02815260206004820152603060248201527f536166654d6174684c69622e6d756c3a207265717569726564202861203d3d2060448201527f30207c7c2063202f2061203d3d20622900000000000000000000000000000000606482015290519081900360840190fd5b600082821115611daf576040805160e560020a62461bcd02815260206004820181905260248201527f536166654d6174684c69622e7375623a2072657175697265642062203c3d2061604482015290519081900360640190fd5b5090039056004f776e6572207265717569726564000000000000000000000000000000000000a165627a7a723058202f525ff973ccb0a7c936e0f80286d820cc688a7673636fd424c5384514f00a620029",
  "source": "pragma solidity ^0.4.26;\n\nimport \"./IERC20.sol\";\nimport \"./SafeMathLib.sol\";\nimport \"./OrFeedInterface.sol\";\nimport \"./FITHTokenSaleReferrals.sol\";\n\n/**\n * @dev Fiatech ETH discount sale promotion contract.\n */\ncontract FITHTokenSaleRefAndPromo is FITHTokenSaleReferrals\n{\n\tusing SafeMathLib for uint;\n\t\n\t// USDT stable coin smart contrat address\n\taddress public usdtContractAddress;\n\t\n\t// Oracle feed for ETH/USDT real time exchange rate contrat address\n\taddress public orFeedContractAddress;\n\t\n\tuint public oneEthAsWei = 10**18;\n\t\n\tuint public ethDiscountPercent = 5000; // percent = ethDiscountPercent / 10000 = 0.2 = 20%\n\t\n\t\n\t// eth each token sale user used to buy tokens\n\tmapping(address => uint) public ethBalances;\n\t\n\t// USDT balances for users participating in eth promo\n\tmapping(address => uint) public usdtBalances;\n\t\n\t\n\t// Eth Discount Percent updated event\n\tevent EthDiscountPercentUpdated(address indexed admin, uint newEthDiscountPercent);\n\t\n\t// USDT deposit event\n\tevent USDTDeposit(address indexed from, uint tokens);\n\t\n\t// USDT withdrawal event\n\tevent USDTWithdrawal(address indexed from, uint tokens);\n\t\n\t// Promo ETH bought event\n\tevent PromoEthBought(address indexed user, uint ethWei, uint usdtCost);\n\t\n\t\n\t\n\t/**\n\t * @dev Constructor\n\t */\n    constructor(IERC20 _tokenContract, uint256 _tokenPrice, IERC20 _usdStableCoinContract, OrFeedInterface _orFeedContract)\n\t\tFITHTokenSaleReferrals(_tokenContract, _tokenPrice)\n\t\tpublic\n\t{\n\t\tusdtContractAddress = address(_usdStableCoinContract);\n\t\torFeedContractAddress = address(_orFeedContract);\n    }\n\t\n\t\n\t\n\tfunction setOrFeedAddress(OrFeedInterface _orFeedContract) public onlyOwner returns(bool) {\n\t\trequire(orFeedContractAddress != address(_orFeedContract), \"New orfeed address required\");\n\t\t\n\t\torFeedContractAddress = address(_orFeedContract);\n\t\treturn true;\n\t}\n\t\n\tfunction getEthUsdPrice() public view returns(uint) {\n\t\treturn OrFeedInterface(orFeedContractAddress).getExchangeRate(\"ETH\", \"USDT\", \"DEFAULT\", oneEthAsWei);\n\t}\n\t\n\tfunction getEthWeiAmountPrice(uint ethWeiAmount) public view returns(uint) {\n\t\treturn OrFeedInterface(orFeedContractAddress).getExchangeRate(\"ETH\", \"USDT\", \"DEFAULT\", ethWeiAmount);\n\t}\n\t\n\t// update eth discount percent as integer down to 0.0001 discount\n\tfunction updateEthDiscountPercent(uint newEthDiscountPercent) public onlyOwner returns(bool) {\n\t\trequire(newEthDiscountPercent != ethDiscountPercent, \"EthPromo/same-eth-discount-percent\");\n\t\trequire(newEthDiscountPercent > 0 && newEthDiscountPercent < 10000, \"EthPromo/eth-discount-percent-out-of-range\");\n\t\t\n\t\tethDiscountPercent = newEthDiscountPercent;\n\t\temit EthDiscountPercentUpdated(msg.sender, newEthDiscountPercent);\n\t\treturn true;\n\t}\n\t\n\t\n\t\n\t// referer is address instead of string\n\tfunction fithBalanceOf(address user) public view returns(uint) {\n\t\t\n\t\treturn IERC20(tokenContract).balanceOf(user);\n    }\n\t\n\t//---\n\t// NOTE: Prior to calling this function, user has to call \"approve\" on the USDT contract allowing this contract to transfer on his behalf.\n\t// Transfer usdt stable coins on behalf of the user and register amounts for the ETH promo.\n\t// NOTE: This is needed for the ETH prmotion:\n\t// -To register each user USDT amounts for eth promo calculations and also to be able to withdraw user USDT at any time.\n\t//---\n\tfunction depositUSDTAfterApproval(address from, uint tokens) public returns(bool) {\n\t\t\n\t\t// this contract transfers USDT for deposit on behalf of user after approval\n\t\trequire(IERC20(usdtContractAddress).transferFrom(from, address(this), tokens), \"depositUSDTAfterApproval failed\");\n\t\t\n\t\t// register USDT amounts for each user\n\t\tusdtBalances[from] = usdtBalances[from].add(tokens);\n\t\t\n\t\temit USDTDeposit(from, tokens);\n\t\t\n\t\treturn true;\n\t}\n\t\n\t//---\n\t// User withdraws from his USDT balance available\n\t// NOTE: If sender is owner, he withdraws from USDT profit balance available\n\t//---\n\tfunction withdrawUSDT(uint tokens) public returns(bool) {\n\t\trequire(usdtBalances[msg.sender] >= tokens, \"EthPromo/insufficient-USDT-balance\");\n\t\t\n\t\t// this contract transfers USDT to user\n\t\trequire(IERC20(usdtContractAddress).transfer(msg.sender, tokens), \"EthPromo/USDT.transfer failed\");\n\t\t\n\t\t// register USDT withdrawals for each user\n\t\tusdtBalances[msg.sender] = usdtBalances[msg.sender].sub(tokens);\n\t\t\n\t\temit USDTWithdrawal(msg.sender, tokens);\n\t\t\n\t\treturn true;\n\t}\n\t\n\t\n\t\n\t\n\t//---\n\t// Given eth wei amount return cost in USDT stable coin wei with 6 decimals.\n\t// This function can be used for debug and testing purposes by any user\n\t// and it is useful to see the discounted price in USDT for given amount of eth a user wants to purchase.\n\t//---\n\tfunction checkEthWeiPromoCost(uint ethWei) public view returns(uint) {\n\t\tuint ethPrice = getEthUsdPrice();\n\t\trequire(ethPrice > 0, \"EthPromo/ethPrice-is-zero\");\n\t\t\n\t\t// calculate final discounted price\n\t\t//uint usdtCost = ethWei / (10**18) * ethPrice * (10000 - ethDiscountPercent) / 10000;\n\t\tuint usdtCost = ethWei.mul(ethPrice).mul(10000 - ethDiscountPercent).div(oneEthAsWei).div(10000);   //oneEthAsWei = 10**18 wei\n\t\treturn usdtCost;\n\t}\n\t\n\t\n\t\n\t// returns eth cost in USDT stable coin wei with 6 decimals\n\tfunction calculateEthWeiCost(uint ethWei) public view returns(uint256) {\n\t\treturn getEthWeiAmountPrice(ethWei);\n\t}\n\t\n\tfunction calculateUSDTWithDiscount(uint usdt) public view returns(uint256) {\n\t\t// we can represent discounts precision down to 0.01% = 0.0001, so we use 10000 factor\n\t\treturn (usdt.mul(10000 - ethDiscountPercent).div(10000));\n\t}\n\t\n\t//---\n\t// User buys eth at discount according to eth promo rules and his USDT balance available\n\t//---\n\tfunction buyEthAtDiscount(uint ethWei) public returns(bool) {\n\t\trequire(ethBalances[msg.sender] >= ethWei, \"EthPromo/eth-promo-limit-reached\");\n\t\t\n\t\tuint usdtCost = checkEthWeiPromoCost(ethWei);\n\t\trequire(usdtCost > 0, \"EthPromo/usdtCost-is-zero\");\n\t\t\n\t\t// register USDT withdrawals for each user\n\t\tusdtBalances[msg.sender] = usdtBalances[msg.sender].sub(usdtCost);\n\t\t\n\t\t// USDT profit goes to owner that can withdraw anytime after eth sales excluding users balances\n\t\tusdtBalances[owner] = usdtBalances[owner].add(usdtCost);\n\t\t\n\t\t// register eth promo left for current user\n\t\tethBalances[msg.sender] = ethBalances[msg.sender].sub(ethWei);\n\t\t\n\t\t// transfer to the user the ether he bought at promotion\n        (msg.sender).transfer(ethWei);\n\t\t\n\t\temit PromoEthBought(msg.sender, ethWei, usdtCost);\n\t\t\n\t\treturn true;\n\t}\n\t\n\t\n\t\n\t///---\n\t/// NOTE: Having special end sale function to handle USDT stable coin profit as well is not needed,\n\t/// because owner can always withdraw that profit using 'withdrawUSDT' function.\n\t///---\n\t\n\t/**\n\t * This contract has special end sale function to handle USDT stable coin profit as well.\n\t */\n\t/*function endSale() public onlyOwner {\n\t\t// transfer remaining FITH tokens from this contract back to owner\n        require(tokenContract.transfer(owner, tokenContract.balanceOf(address(this))), \"Transfer token-sale token balance to owner failed\");\n\t\t\n\t\t// transfer remaining USDT profit from this contract to owner\n\t\trequire(IERC20(usdtContractAddress).transfer(owner, usdtBalances[owner]), \"EthPromo/USDT.profit.transfer failed\");\n\t\t\n        // Just transfer the ether balance to the owner\n        owner.transfer(address(this).balance);\n    }*/\n\t\n\t\n\t\n\t/**\n\t * Accept ETH for tokens\n\t */\n    function () external payable {\n\t\tuint tks = (msg.value).div(tokenPrice);\n\t\t\n\t\taddress refererAddress = address(0);\n\t\tbytes memory msgData = msg.data;\n\t\t// 4 bytes for signature\n\t\tif (msgData.length > 4) {\n\t\t\tassembly {\n\t\t\t\trefererAddress := mload(add(msgData, 20))\n\t\t\t}\n\t\t}\n\t\t\n\t\t_buyTokens(tks, refererAddress);\n\t\t\n\t\t// store eth of each token sale user\n\t\tethBalances[msg.sender] = ethBalances[msg.sender].add(msg.value);\n    }\n}",
  "sourcePath": "C:/Users/Homeuser/Desktop/FITH-token-sale-v0.4.26/contracts/FITHTokenSaleRefAndPromo.sol",
  "compiler": {
    "name": "solc",
    "version": "0.4.26+commit.4563c3fc.Emscripten.clang"
  },
  "schemaVersion": "3.0.5",
  "updatedAt": "2020-08-20T15:45:18.199Z",
  "devdoc": {
    "methods": {
      "recoverAnyERC20Token(address,uint256)": {
        "details": "Owner can transfer out (recover) any ERC20 tokens accidentally sent to this contract.",
        "params": {
          "tokenAddress": "Token contract address we want to recover lost tokens from.",
          "tokens": "Amount of tokens to be recovered, usually the same as the balance of this contract."
        },
        "return": "bool"
      }
    }
  },
  "userdoc": {
    "methods": {}
  }
}