{
  "contractName": "USDT",
  "abi": [
    {
      "constant": true,
      "inputs": [],
      "name": "name",
      "outputs": [
        {
          "name": "",
          "type": "string"
        }
      ],
      "payable": false,
      "stateMutability": "view",
      "type": "function",
      "signature": "0x06fdde03"
    },
    {
      "constant": false,
      "inputs": [
        {
          "name": "spender",
          "type": "address"
        },
        {
          "name": "tokens",
          "type": "uint256"
        }
      ],
      "name": "approve",
      "outputs": [
        {
          "name": "success",
          "type": "bool"
        }
      ],
      "payable": false,
      "stateMutability": "nonpayable",
      "type": "function",
      "signature": "0x095ea7b3"
    },
    {
      "constant": true,
      "inputs": [],
      "name": "totalSupply",
      "outputs": [
        {
          "name": "",
          "type": "uint256"
        }
      ],
      "payable": false,
      "stateMutability": "view",
      "type": "function",
      "signature": "0x18160ddd"
    },
    {
      "constant": false,
      "inputs": [
        {
          "name": "from",
          "type": "address"
        },
        {
          "name": "to",
          "type": "address"
        },
        {
          "name": "tokens",
          "type": "uint256"
        }
      ],
      "name": "transferFrom",
      "outputs": [
        {
          "name": "success",
          "type": "bool"
        }
      ],
      "payable": false,
      "stateMutability": "nonpayable",
      "type": "function",
      "signature": "0x23b872dd"
    },
    {
      "constant": true,
      "inputs": [],
      "name": "decimals",
      "outputs": [
        {
          "name": "",
          "type": "uint8"
        }
      ],
      "payable": false,
      "stateMutability": "view",
      "type": "function",
      "signature": "0x313ce567"
    },
    {
      "constant": true,
      "inputs": [],
      "name": "_totalSupply",
      "outputs": [
        {
          "name": "",
          "type": "uint256"
        }
      ],
      "payable": false,
      "stateMutability": "view",
      "type": "function",
      "signature": "0x3eaaf86b"
    },
    {
      "constant": true,
      "inputs": [],
      "name": "standard",
      "outputs": [
        {
          "name": "",
          "type": "string"
        }
      ],
      "payable": false,
      "stateMutability": "view",
      "type": "function",
      "signature": "0x5a3b7e42"
    },
    {
      "constant": true,
      "inputs": [
        {
          "name": "tokenOwner",
          "type": "address"
        }
      ],
      "name": "balanceOf",
      "outputs": [
        {
          "name": "balance",
          "type": "uint256"
        }
      ],
      "payable": false,
      "stateMutability": "view",
      "type": "function",
      "signature": "0x70a08231"
    },
    {
      "constant": true,
      "inputs": [],
      "name": "owner",
      "outputs": [
        {
          "name": "",
          "type": "address"
        }
      ],
      "payable": false,
      "stateMutability": "view",
      "type": "function",
      "signature": "0x8da5cb5b"
    },
    {
      "constant": true,
      "inputs": [],
      "name": "symbol",
      "outputs": [
        {
          "name": "",
          "type": "string"
        }
      ],
      "payable": false,
      "stateMutability": "view",
      "type": "function",
      "signature": "0x95d89b41"
    },
    {
      "constant": false,
      "inputs": [
        {
          "name": "to",
          "type": "address"
        },
        {
          "name": "tokens",
          "type": "uint256"
        }
      ],
      "name": "transfer",
      "outputs": [
        {
          "name": "success",
          "type": "bool"
        }
      ],
      "payable": false,
      "stateMutability": "nonpayable",
      "type": "function",
      "signature": "0xa9059cbb"
    },
    {
      "constant": true,
      "inputs": [
        {
          "name": "tokenOwner",
          "type": "address"
        },
        {
          "name": "spender",
          "type": "address"
        }
      ],
      "name": "allowance",
      "outputs": [
        {
          "name": "remaining",
          "type": "uint256"
        }
      ],
      "payable": false,
      "stateMutability": "view",
      "type": "function",
      "signature": "0xdd62ed3e"
    },
    {
      "inputs": [],
      "payable": false,
      "stateMutability": "nonpayable",
      "type": "constructor",
      "signature": "constructor"
    },
    {
      "anonymous": false,
      "inputs": [
        {
          "indexed": true,
          "name": "from",
          "type": "address"
        },
        {
          "indexed": true,
          "name": "to",
          "type": "address"
        },
        {
          "indexed": false,
          "name": "tokens",
          "type": "uint256"
        }
      ],
      "name": "Transfer",
      "type": "event",
      "signature": "0xddf252ad1be2c89b69c2b068fc378daa952ba7f163c4a11628f55a4df523b3ef"
    },
    {
      "anonymous": false,
      "inputs": [
        {
          "indexed": true,
          "name": "owner",
          "type": "address"
        },
        {
          "indexed": true,
          "name": "spender",
          "type": "address"
        },
        {
          "indexed": false,
          "name": "tokens",
          "type": "uint256"
        }
      ],
      "name": "Approval",
      "type": "event",
      "signature": "0x8c5be1e5ebec7d5bd14f71427d1e84f3dd0314c0f7b2291e5b200ac8c7c3b925"
    }
  ],
  "bytecode": "0x608060405234801561001057600080fd5b50604080518082018252600481527f5553445400000000000000000000000000000000000000000000000000000000602080830191825283518085018552601081527f5553442054657468657220746f6b656e00000000000000000000000000000000818301528451808601909552601585527f5553442054657468657220746f6b656e2076312e3000000000000000000000009185019190915260008054600160a060020a0319163317905582519293909290916006916402540be400916100dc9160019190610178565b5083516100f0906002906020870190610178565b508251610104906003906020860190610178565b506004805460ff191660ff848116919091179182905516600a0a81026005819055336000818152600660209081526040808320859055805194855251929391927fddf252ad1be2c89b69c2b068fc378daa952ba7f163c4a11628f55a4df523b3ef9281900390910190a35050505050610213565b828054600181600116156101000203166002900490600052602060002090601f016020900481019282601f106101b957805160ff19168380011785556101e6565b828001600101855582156101e6579182015b828111156101e65782518255916020019190600101906101cb565b506101f29291506101f6565b5090565b61021091905b808211156101f257600081556001016101fc565b90565b610841806102226000396000f3006080604052600436106100b95763ffffffff7c010000000000000000000000000000000000000000000000000000000060003504166306fdde0381146100be578063095ea7b31461014857806318160ddd1461018057806323b872dd146101a7578063313ce567146101d15780633eaaf86b146101fc5780635a3b7e421461021157806370a08231146102265780638da5cb5b1461024757806395d89b4114610278578063a9059cbb1461028d578063dd62ed3e146102b1575b600080fd5b3480156100ca57600080fd5b506100d36102d8565b6040805160208082528351818301528351919283929083019185019080838360005b8381101561010d5781810151838201526020016100f5565b50505050905090810190601f16801561013a5780820380516001836020036101000a031916815260200191505b509250505060405180910390f35b34801561015457600080fd5b5061016c600160a060020a0360043516602435610363565b604080519115158252519081900360200190f35b34801561018c57600080fd5b506101956103ca565b60408051918252519081900360200190f35b3480156101b357600080fd5b5061016c600160a060020a03600435811690602435166044356103d0565b3480156101dd57600080fd5b506101e6610530565b6040805160ff9092168252519081900360200190f35b34801561020857600080fd5b50610195610539565b34801561021d57600080fd5b506100d361053f565b34801561023257600080fd5b50610195600160a060020a036004351661059a565b34801561025357600080fd5b5061025c6105b5565b60408051600160a060020a039092168252519081900360200190f35b34801561028457600080fd5b506100d36105c4565b34801561029957600080fd5b5061016c600160a060020a036004351660243561061e565b3480156102bd57600080fd5b50610195600160a060020a0360043581169060243516610701565b6002805460408051602060018416156101000260001901909316849004601f8101849004840282018401909252818152929183018282801561035b5780601f106103305761010080835404028352916020019161035b565b820191906000526020600020905b81548152906001019060200180831161033e57829003601f168201915b505050505081565b336000818152600760209081526040808320600160a060020a038716808552908352818420869055815186815291519394909390927f8c5be1e5ebec7d5bd14f71427d1e84f3dd0314c0f7b2291e5b200ac8c7c3b925928290030190a35060015b92915050565b60055490565b600160a060020a0383166000908152600660205260408120548211156103f557600080fd5b600160a060020a038416600090815260076020908152604080832033845290915290205482111561042557600080fd5b600160a060020a03841660009081526006602052604090205461044e908363ffffffff61072c16565b600160a060020a038516600090815260066020908152604080832093909355600781528282203383529052205461048b908363ffffffff61072c16565b600160a060020a0380861660009081526007602090815260408083203384528252808320949094559186168152600690915220546104cf908363ffffffff6107a316565b600160a060020a0380851660008181526006602090815260409182902094909455805186815290519193928816927fddf252ad1be2c89b69c2b068fc378daa952ba7f163c4a11628f55a4df523b3ef92918290030190a35060019392505050565b60045460ff1681565b60055481565b6003805460408051602060026001851615610100026000190190941693909304601f8101849004840282018401909252818152929183018282801561035b5780601f106103305761010080835404028352916020019161035b565b600160a060020a031660009081526006602052604090205490565b600054600160a060020a031681565b60018054604080516020600284861615610100026000190190941693909304601f8101849004840282018401909252818152929183018282801561035b5780601f106103305761010080835404028352916020019161035b565b6000600160a060020a038316151561063557600080fd5b3360009081526006602052604090205482111561065157600080fd5b33600090815260066020526040902054610671908363ffffffff61072c16565b3360009081526006602052604080822092909255600160a060020a038516815220546106a3908363ffffffff6107a316565b600160a060020a0384166000818152600660209081526040918290209390935580518581529051919233927fddf252ad1be2c89b69c2b068fc378daa952ba7f163c4a11628f55a4df523b3ef9281900390910190a350600192915050565b600160a060020a03918216600090815260076020908152604080832093909416825291909152205490565b60008282111561079d57604080517f08c379a000000000000000000000000000000000000000000000000000000000815260206004820181905260248201527f536166654d6174684c69622e7375623a2072657175697265642062203c3d2061604482015290519081900360640190fd5b50900390565b818101828110156103c457604080517f08c379a000000000000000000000000000000000000000000000000000000000815260206004820181905260248201527f536166654d6174684c69622e6164643a2072657175697265642063203e3d2061604482015290519081900360640190fd00a165627a7a7230582082b1ba0fb9167d6993d05562f9eefa0aec40fe1e09231c8b2785f90392723b380029",
  "source": "pragma solidity ^0.4.26;\r\n\r\nimport \"./IERC20.sol\";\r\nimport \"./Owned.sol\";\r\nimport \"./ERC20TokenBase.sol\";\r\nimport \"./SafeMathLib.sol\";\r\n\r\n// ----------------------------------------------------------------------------\r\n// USDT (Tether) stable coin token simulator contract\r\n//\r\n// Symbol      : USDT\r\n// Name        : USD Tether token\r\n// Decimals    : 6\r\n//\r\n\r\n\r\n\r\n// This contract is used for FITHTokenSale testing purposes, we are specially interested in 6 decimals token contract as USDT.\r\ncontract USDT is IERC20, Owned, ERC20TokenBase\r\n{\r\n\tusing SafeMathLib for uint;\r\n\t\r\n    // ------------------------------------------------------------------------\r\n    // Constructor\r\n    // ------------------------------------------------------------------------\r\n    constructor()\r\n\t\tERC20TokenBase(\r\n\t\t\t\"USDT\" //symbol\r\n\t\t\t, \"USD Tether token\" //name\r\n\t\t\t, \"USD Tether token v1.0\" //standard\r\n\t\t\t, 6 //decimals\r\n\t\t\t, 10000000000 //_initialSupply\r\n\t\t)\r\n\t\tpublic\r\n\t{\r\n    }\r\n}",
  "sourcePath": "C:/Users/Homeuser/Desktop/FITH-token-sale-v0.4.26/contracts/USDT.sol",
  "compiler": {
    "name": "solc",
    "version": "0.4.26+commit.4563c3fc.Emscripten.clang"
  },
  "schemaVersion": "3.0.5",
  "updatedAt": "2020-08-20T15:45:18.183Z",
  "devdoc": {
    "methods": {}
  },
  "userdoc": {
    "methods": {
      "transferFrom(address,address,uint256)": {
        "notice": "*** The user executing the function pays the transfer fees, not the funds owner"
      }
    }
  }
}