{
  "contractName": "ERC20Token",
  "abi": [
    {
      "constant": true,
      "inputs": [],
      "name": "name",
      "outputs": [
        {
          "name": "",
          "type": "string"
        }
      ],
      "payable": false,
      "stateMutability": "view",
      "type": "function",
      "signature": "0x06fdde03"
    },
    {
      "constant": true,
      "inputs": [],
      "name": "decimals",
      "outputs": [
        {
          "name": "",
          "type": "uint8"
        }
      ],
      "payable": false,
      "stateMutability": "view",
      "type": "function",
      "signature": "0x313ce567"
    },
    {
      "constant": true,
      "inputs": [],
      "name": "_totalSupply",
      "outputs": [
        {
          "name": "",
          "type": "uint256"
        }
      ],
      "payable": false,
      "stateMutability": "view",
      "type": "function",
      "signature": "0x3eaaf86b"
    },
    {
      "constant": true,
      "inputs": [],
      "name": "standard",
      "outputs": [
        {
          "name": "",
          "type": "string"
        }
      ],
      "payable": false,
      "stateMutability": "view",
      "type": "function",
      "signature": "0x5a3b7e42"
    },
    {
      "constant": true,
      "inputs": [],
      "name": "symbol",
      "outputs": [
        {
          "name": "",
          "type": "string"
        }
      ],
      "payable": false,
      "stateMutability": "view",
      "type": "function",
      "signature": "0x95d89b41"
    },
    {
      "inputs": [
        {
          "name": "_initialSupply",
          "type": "uint256"
        }
      ],
      "payable": false,
      "stateMutability": "nonpayable",
      "type": "constructor",
      "signature": "constructor"
    },
    {
      "anonymous": false,
      "inputs": [
        {
          "indexed": true,
          "name": "from",
          "type": "address"
        },
        {
          "indexed": true,
          "name": "to",
          "type": "address"
        },
        {
          "indexed": false,
          "name": "tokens",
          "type": "uint256"
        }
      ],
      "name": "Transfer",
      "type": "event",
      "signature": "0xddf252ad1be2c89b69c2b068fc378daa952ba7f163c4a11628f55a4df523b3ef"
    },
    {
      "anonymous": false,
      "inputs": [
        {
          "indexed": true,
          "name": "owner",
          "type": "address"
        },
        {
          "indexed": true,
          "name": "spender",
          "type": "address"
        },
        {
          "indexed": false,
          "name": "tokens",
          "type": "uint256"
        }
      ],
      "name": "Approval",
      "type": "event",
      "signature": "0x8c5be1e5ebec7d5bd14f71427d1e84f3dd0314c0f7b2291e5b200ac8c7c3b925"
    },
    {
      "constant": true,
      "inputs": [],
      "name": "totalSupply",
      "outputs": [
        {
          "name": "",
          "type": "uint256"
        }
      ],
      "payable": false,
      "stateMutability": "view",
      "type": "function",
      "signature": "0x18160ddd"
    },
    {
      "constant": true,
      "inputs": [
        {
          "name": "tokenOwner",
          "type": "address"
        }
      ],
      "name": "balanceOf",
      "outputs": [
        {
          "name": "balance",
          "type": "uint256"
        }
      ],
      "payable": false,
      "stateMutability": "view",
      "type": "function",
      "signature": "0x70a08231"
    },
    {
      "constant": false,
      "inputs": [
        {
          "name": "to",
          "type": "address"
        },
        {
          "name": "tokens",
          "type": "uint256"
        }
      ],
      "name": "transfer",
      "outputs": [
        {
          "name": "success",
          "type": "bool"
        }
      ],
      "payable": false,
      "stateMutability": "nonpayable",
      "type": "function",
      "signature": "0xa9059cbb"
    },
    {
      "constant": false,
      "inputs": [
        {
          "name": "spender",
          "type": "address"
        },
        {
          "name": "tokens",
          "type": "uint256"
        }
      ],
      "name": "approve",
      "outputs": [
        {
          "name": "success",
          "type": "bool"
        }
      ],
      "payable": false,
      "stateMutability": "nonpayable",
      "type": "function",
      "signature": "0x095ea7b3"
    },
    {
      "constant": false,
      "inputs": [
        {
          "name": "from",
          "type": "address"
        },
        {
          "name": "to",
          "type": "address"
        },
        {
          "name": "tokens",
          "type": "uint256"
        }
      ],
      "name": "transferFrom",
      "outputs": [
        {
          "name": "success",
          "type": "bool"
        }
      ],
      "payable": false,
      "stateMutability": "nonpayable",
      "type": "function",
      "signature": "0x23b872dd"
    },
    {
      "constant": true,
      "inputs": [
        {
          "name": "tokenOwner",
          "type": "address"
        },
        {
          "name": "spender",
          "type": "address"
        }
      ],
      "name": "allowance",
      "outputs": [
        {
          "name": "remaining",
          "type": "uint256"
        }
      ],
      "payable": false,
      "stateMutability": "view",
      "type": "function",
      "signature": "0xdd62ed3e"
    }
  ],
  "bytecode": "0x608060405234801561001057600080fd5b50604051602080610a2b833981016040818152915182820190925260048082527f464954480000000000000000000000000000000000000000000000000000000060209092019182526100659160009161015f565b5060408051808201909152600a8082527f4649544820546f6b656e0000000000000000000000000000000000000000000060209092019182526100aa9160019161015f565b5060408051808201909152600f8082527f4649544820546f6b656e2076312e30000000000000000000000000000000000060209092019182526100ef9160029161015f565b506003805460ff191660049081179182905560ff91909116600a0a820290819055336000818152600560209081526040808320859055805194855251929391927fddf252ad1be2c89b69c2b068fc378daa952ba7f163c4a11628f55a4df523b3ef9281900390910190a3506101fa565b828054600181600116156101000203166002900490600052602060002090601f016020900481019282601f106101a057805160ff19168380011785556101cd565b828001600101855582156101cd579182015b828111156101cd5782518255916020019190600101906101b2565b506101d99291506101dd565b5090565b6101f791905b808211156101d957600081556001016101e3565b90565b610822806102096000396000f3006080604052600436106100ae5763ffffffff7c010000000000000000000000000000000000000000000000000000000060003504166306fdde0381146100b3578063095ea7b31461013d57806318160ddd1461017557806323b872dd1461019c578063313ce567146101c65780633eaaf86b146101f15780635a3b7e421461020657806370a082311461021b57806395d89b411461023c578063a9059cbb14610251578063dd62ed3e14610275575b600080fd5b3480156100bf57600080fd5b506100c861029c565b6040805160208082528351818301528351919283929083019185019080838360005b838110156101025781810151838201526020016100ea565b50505050905090810190601f16801561012f5780820380516001836020036101000a031916815260200191505b509250505060405180910390f35b34801561014957600080fd5b50610161600160a060020a0360043516602435610329565b604080519115158252519081900360200190f35b34801561018157600080fd5b5061018a610390565b60408051918252519081900360200190f35b3480156101a857600080fd5b50610161600160a060020a03600435811690602435166044356103c2565b3480156101d257600080fd5b506101db610522565b6040805160ff9092168252519081900360200190f35b3480156101fd57600080fd5b5061018a61052b565b34801561021257600080fd5b506100c8610531565b34801561022757600080fd5b5061018a600160a060020a0360043516610589565b34801561024857600080fd5b506100c86105a4565b34801561025d57600080fd5b50610161600160a060020a03600435166024356105ff565b34801561028157600080fd5b5061018a600160a060020a03600435811690602435166106e2565b60018054604080516020600284861615610100026000190190941693909304601f810184900484028201840190925281815292918301828280156103215780601f106102f657610100808354040283529160200191610321565b820191906000526020600020905b81548152906001019060200180831161030457829003601f168201915b505050505081565b336000818152600660209081526040808320600160a060020a038716808552908352818420869055815186815291519394909390927f8c5be1e5ebec7d5bd14f71427d1e84f3dd0314c0f7b2291e5b200ac8c7c3b925928290030190a35060015b92915050565b6000805260056020527f05b8ccbb9d4d8fb16ea74ce3c29a41f1b461fbdaff4714a0d9a8eb05499746bc546004540390565b600160a060020a0383166000908152600560205260408120548211156103e757600080fd5b600160a060020a038416600090815260066020908152604080832033845290915290205482111561041757600080fd5b600160a060020a038416600090815260056020526040902054610440908363ffffffff61070d16565b600160a060020a038516600090815260056020908152604080832093909355600681528282203383529052205461047d908363ffffffff61070d16565b600160a060020a0380861660009081526006602090815260408083203384528252808320949094559186168152600590915220546104c1908363ffffffff61078416565b600160a060020a0380851660008181526005602090815260409182902094909455805186815290519193928816927fddf252ad1be2c89b69c2b068fc378daa952ba7f163c4a11628f55a4df523b3ef92918290030190a35060019392505050565b60035460ff1681565b60045481565b6002805460408051602060018416156101000260001901909316849004601f810184900484028201840190925281815292918301828280156103215780601f106102f657610100808354040283529160200191610321565b600160a060020a031660009081526005602052604090205490565b6000805460408051602060026001851615610100026000190190941693909304601f810184900484028201840190925281815292918301828280156103215780601f106102f657610100808354040283529160200191610321565b6000600160a060020a038316151561061657600080fd5b3360009081526005602052604090205482111561063257600080fd5b33600090815260056020526040902054610652908363ffffffff61070d16565b3360009081526005602052604080822092909255600160a060020a03851681522054610684908363ffffffff61078416565b600160a060020a0384166000818152600560209081526040918290209390935580518581529051919233927fddf252ad1be2c89b69c2b068fc378daa952ba7f163c4a11628f55a4df523b3ef9281900390910190a350600192915050565b600160a060020a03918216600090815260066020908152604080832093909416825291909152205490565b60008282111561077e57604080517f08c379a000000000000000000000000000000000000000000000000000000000815260206004820181905260248201527f536166654d6174684c69622e7375623a2072657175697265642062203c3d2061604482015290519081900360640190fd5b50900390565b8181018281101561038a57604080517f08c379a000000000000000000000000000000000000000000000000000000000815260206004820181905260248201527f536166654d6174684c69622e6164643a2072657175697265642063203e3d2061604482015290519081900360640190fd00a165627a7a72305820fb9e3e22c2514270f77ef7ca2b117c9cbea10ae9fe0f11e79298c86d671ca1ac0029",
  "source": "pragma solidity ^0.4.26;\r\n\r\nimport \"./IERC20.sol\";\r\nimport \"./SafeMathLib.sol\";\r\n\r\n// ----------------------------------------------------------------------------\r\n// 'FITH Fiatech Token' contract\r\n//\r\n// Symbol      : FITH\r\n// Name        : FITH Fiatech Token\r\n// Total supply: 10,000,000,000.0000\r\n// Decimals    : 4\r\n//\r\n\r\n// ----------------------------------------------------------------------------\r\n// ERC20 Token, with the addition of symbol, name and decimals and an\r\n// initial fixed supply\r\n// ----------------------------------------------------------------------------\r\n\r\ncontract ERC20Token is IERC20\r\n{\r\n    using SafeMathLib for uint;\r\n\t\r\n    string public symbol;\r\n    string public name;\r\n\tstring public standard;\r\n\t\r\n    uint8 public decimals;\r\n\t\r\n    uint public _totalSupply;\r\n\t\r\n    mapping(address => uint) balances;\r\n\t\r\n\tmapping(address => mapping(address => uint)) allowed;\r\n\t\r\n\t\r\n\t\r\n\t// ------------------------------------------------------------------------\r\n    // Constructor\r\n    // ------------------------------------------------------------------------\r\n    constructor(uint _initialSupply) public\r\n\t{\r\n\t\tsymbol = \"FITH\";\r\n        name = \"FITH Token\";\r\n\t\tstandard = \"FITH Token v1.0\";\r\n\t\t\r\n        decimals = 4;\r\n\t\t\r\n        _totalSupply = _initialSupply * 10**uint(decimals);\r\n\t\t\r\n        balances[msg.sender] = _totalSupply;\r\n        emit Transfer(address(0), msg.sender, _totalSupply);\r\n    }\r\n\t\r\n\t\r\n\t\r\n    // ------------------------------------------------------------------------\r\n    // Total supply\r\n    // ------------------------------------------------------------------------\r\n\tfunction totalSupply() public view returns (uint) {\r\n        return _totalSupply  - balances[address(0)];\r\n    }\r\n\t\r\n\t\r\n\t\r\n    // ------------------------------------------------------------------------\r\n    // Get the token balance for account `tokenOwner`\r\n    // ------------------------------------------------------------------------\r\n    function balanceOf(address tokenOwner) public view returns (uint balance) {\r\n        return balances[tokenOwner];\r\n    }\r\n\t\r\n\t\r\n\t\r\n    // ------------------------------------------------------------------------\r\n    // Transfer the balance from token owner's account to `to` account\r\n    // - Owner's account must have sufficient balance to transfer\r\n    // - 0 value transfers are allowed\r\n    // ------------------------------------------------------------------------\r\n    function transfer(address to, uint tokens) public returns (bool success) {\r\n\t\trequire(to != address(0));\r\n\t\trequire(balances[msg.sender] >= tokens);\r\n\t\t\r\n\t\tbalances[msg.sender] = balances[msg.sender].sub(tokens);\r\n        balances[to] = balances[to].add(tokens);\r\n\t\t\r\n\t\temit Transfer(msg.sender, to, tokens);\r\n\r\n        return true;\r\n    }\r\n\t\r\n\t\r\n\t\r\n    // ------------------------------------------------------------------------\r\n    // Token owner can approve for `spender` to transferFrom(...) `tokens`\r\n    // from the token owner's account\r\n    // ------------------------------------------------------------------------\r\n    function approve(address spender, uint tokens) public returns (bool success) {\r\n\r\n        allowed[msg.sender][spender] = tokens;\r\n\r\n        emit Approval(msg.sender, spender, tokens);\r\n\r\n        return true;\r\n    }\r\n\r\n\r\n\r\n    // ------------------------------------------------------------------------\r\n    // Transfer `tokens` from the `from` account to the `to` account\r\n    //\r\n    // The calling account must already have sufficient tokens approve(...)-d\r\n    // for spending from the `from` account and\r\n    // - From account must have sufficient balance to transfer\r\n    // - Spender must have sufficient allowance to transfer\r\n    // - 0 value transfers are allowed\r\n\t///*** The user executing the function pays the transfer fees, not the funds owner\r\n    // ------------------------------------------------------------------------\r\n    function transferFrom(address from, address to, uint tokens) public returns (bool success) {\r\n\t\trequire(tokens <= balances[from]);\r\n        require(tokens <= allowed[from][msg.sender]);\r\n\t\t\r\n\t\tbalances[from] = balances[from].sub(tokens);\r\n\t\t\r\n        allowed[from][msg.sender] = allowed[from][msg.sender].sub(tokens);\r\n\t\t\r\n        balances[to] = balances[to].add(tokens);\r\n\t\t\r\n\t\temit Transfer(from, to, tokens);\r\n\t\t\r\n        return true;\r\n    }\r\n\t\r\n\t\r\n\t\r\n    // ------------------------------------------------------------------------\r\n    // Returns the amount of tokens approved by the owner that can be\r\n    // transferred to the spender's account\r\n    // ------------------------------------------------------------------------\r\n    function allowance(address tokenOwner, address spender) public view returns (uint remaining) {\r\n        return allowed[tokenOwner][spender];\r\n    }\r\n}",
  "sourcePath": "C:/Users/Homeuser/Desktop/FITH-token-sale-v0.4.26/contracts/ERC20Token.sol",
  "compiler": {
    "name": "solc",
    "version": "0.4.26+commit.4563c3fc.Emscripten.clang"
  },
  "schemaVersion": "3.0.5",
  "updatedAt": "2020-08-30T21:03:57.552Z",
  "devdoc": {
    "methods": {}
  },
  "userdoc": {
    "methods": {
      "transferFrom(address,address,uint256)": {
        "notice": "*** The user executing the function pays the transfer fees, not the funds owner"
      }
    }
  }
}