{
  "contractName": "ERC20TokenBase",
  "abi": [
    {
      "constant": true,
      "inputs": [],
      "name": "name",
      "outputs": [
        {
          "name": "",
          "type": "string"
        }
      ],
      "payable": false,
      "stateMutability": "view",
      "type": "function"
    },
    {
      "constant": true,
      "inputs": [],
      "name": "decimals",
      "outputs": [
        {
          "name": "",
          "type": "uint8"
        }
      ],
      "payable": false,
      "stateMutability": "view",
      "type": "function"
    },
    {
      "constant": true,
      "inputs": [],
      "name": "_totalSupply",
      "outputs": [
        {
          "name": "",
          "type": "uint256"
        }
      ],
      "payable": false,
      "stateMutability": "view",
      "type": "function"
    },
    {
      "constant": true,
      "inputs": [],
      "name": "standard",
      "outputs": [
        {
          "name": "",
          "type": "string"
        }
      ],
      "payable": false,
      "stateMutability": "view",
      "type": "function"
    },
    {
      "constant": true,
      "inputs": [],
      "name": "symbol",
      "outputs": [
        {
          "name": "",
          "type": "string"
        }
      ],
      "payable": false,
      "stateMutability": "view",
      "type": "function"
    },
    {
      "inputs": [
        {
          "name": "_symbol",
          "type": "string"
        },
        {
          "name": "_name",
          "type": "string"
        },
        {
          "name": "_standard",
          "type": "string"
        },
        {
          "name": "_decimals",
          "type": "uint8"
        },
        {
          "name": "_initialSupply",
          "type": "uint256"
        }
      ],
      "payable": false,
      "stateMutability": "nonpayable",
      "type": "constructor"
    },
    {
      "anonymous": false,
      "inputs": [
        {
          "indexed": true,
          "name": "from",
          "type": "address"
        },
        {
          "indexed": true,
          "name": "to",
          "type": "address"
        },
        {
          "indexed": false,
          "name": "tokens",
          "type": "uint256"
        }
      ],
      "name": "Transfer",
      "type": "event"
    },
    {
      "anonymous": false,
      "inputs": [
        {
          "indexed": true,
          "name": "owner",
          "type": "address"
        },
        {
          "indexed": true,
          "name": "spender",
          "type": "address"
        },
        {
          "indexed": false,
          "name": "tokens",
          "type": "uint256"
        }
      ],
      "name": "Approval",
      "type": "event"
    },
    {
      "constant": true,
      "inputs": [],
      "name": "totalSupply",
      "outputs": [
        {
          "name": "",
          "type": "uint256"
        }
      ],
      "payable": false,
      "stateMutability": "view",
      "type": "function"
    },
    {
      "constant": true,
      "inputs": [
        {
          "name": "tokenOwner",
          "type": "address"
        }
      ],
      "name": "balanceOf",
      "outputs": [
        {
          "name": "balance",
          "type": "uint256"
        }
      ],
      "payable": false,
      "stateMutability": "view",
      "type": "function"
    },
    {
      "constant": false,
      "inputs": [
        {
          "name": "to",
          "type": "address"
        },
        {
          "name": "tokens",
          "type": "uint256"
        }
      ],
      "name": "transfer",
      "outputs": [
        {
          "name": "success",
          "type": "bool"
        }
      ],
      "payable": false,
      "stateMutability": "nonpayable",
      "type": "function"
    },
    {
      "constant": false,
      "inputs": [
        {
          "name": "spender",
          "type": "address"
        },
        {
          "name": "tokens",
          "type": "uint256"
        }
      ],
      "name": "approve",
      "outputs": [
        {
          "name": "success",
          "type": "bool"
        }
      ],
      "payable": false,
      "stateMutability": "nonpayable",
      "type": "function"
    },
    {
      "constant": false,
      "inputs": [
        {
          "name": "from",
          "type": "address"
        },
        {
          "name": "to",
          "type": "address"
        },
        {
          "name": "tokens",
          "type": "uint256"
        }
      ],
      "name": "transferFrom",
      "outputs": [
        {
          "name": "success",
          "type": "bool"
        }
      ],
      "payable": false,
      "stateMutability": "nonpayable",
      "type": "function"
    },
    {
      "constant": true,
      "inputs": [
        {
          "name": "tokenOwner",
          "type": "address"
        },
        {
          "name": "spender",
          "type": "address"
        }
      ],
      "name": "allowance",
      "outputs": [
        {
          "name": "remaining",
          "type": "uint256"
        }
      ],
      "payable": false,
      "stateMutability": "view",
      "type": "function"
    }
  ],
  "bytecode": "0x608060405234801561001057600080fd5b5060405161099c38038061099c83398101604090815281516020808401519284015160608501516080860151938601805190969586019592909201939092909161006091600091908801906100fc565b5083516100749060019060208701906100fc565b5082516100889060029060208601906100fc565b506003805460ff191660ff848116919091179182905516600a0a81026004819055336000818152600560209081526040808320859055805194855251929391927fddf252ad1be2c89b69c2b068fc378daa952ba7f163c4a11628f55a4df523b3ef9281900390910190a35050505050610197565b828054600181600116156101000203166002900490600052602060002090601f016020900481019282601f1061013d57805160ff191683800117855561016a565b8280016001018555821561016a579182015b8281111561016a57825182559160200191906001019061014f565b5061017692915061017a565b5090565b61019491905b808211156101765760008155600101610180565b90565b6107f6806101a66000396000f3006080604052600436106100ae5763ffffffff7c010000000000000000000000000000000000000000000000000000000060003504166306fdde0381146100b3578063095ea7b31461013d57806318160ddd1461017557806323b872dd1461019c578063313ce567146101c65780633eaaf86b146101f15780635a3b7e421461020657806370a082311461021b57806395d89b411461023c578063a9059cbb14610251578063dd62ed3e14610275575b600080fd5b3480156100bf57600080fd5b506100c861029c565b6040805160208082528351818301528351919283929083019185019080838360005b838110156101025781810151838201526020016100ea565b50505050905090810190601f16801561012f5780820380516001836020036101000a031916815260200191505b509250505060405180910390f35b34801561014957600080fd5b50610161600160a060020a0360043516602435610329565b604080519115158252519081900360200190f35b34801561018157600080fd5b5061018a610390565b60408051918252519081900360200190f35b3480156101a857600080fd5b50610161600160a060020a0360043581169060243516604435610396565b3480156101d257600080fd5b506101db6104f6565b6040805160ff9092168252519081900360200190f35b3480156101fd57600080fd5b5061018a6104ff565b34801561021257600080fd5b506100c8610505565b34801561022757600080fd5b5061018a600160a060020a036004351661055d565b34801561024857600080fd5b506100c8610578565b34801561025d57600080fd5b50610161600160a060020a03600435166024356105d3565b34801561028157600080fd5b5061018a600160a060020a03600435811690602435166106b6565b60018054604080516020600284861615610100026000190190941693909304601f810184900484028201840190925281815292918301828280156103215780601f106102f657610100808354040283529160200191610321565b820191906000526020600020905b81548152906001019060200180831161030457829003601f168201915b505050505081565b336000818152600660209081526040808320600160a060020a038716808552908352818420869055815186815291519394909390927f8c5be1e5ebec7d5bd14f71427d1e84f3dd0314c0f7b2291e5b200ac8c7c3b925928290030190a35060015b92915050565b60045490565b600160a060020a0383166000908152600560205260408120548211156103bb57600080fd5b600160a060020a03841660009081526006602090815260408083203384529091529020548211156103eb57600080fd5b600160a060020a038416600090815260056020526040902054610414908363ffffffff6106e116565b600160a060020a0385166000908152600560209081526040808320939093556006815282822033835290522054610451908363ffffffff6106e116565b600160a060020a038086166000908152600660209081526040808320338452825280832094909455918616815260059091522054610495908363ffffffff61075816565b600160a060020a0380851660008181526005602090815260409182902094909455805186815290519193928816927fddf252ad1be2c89b69c2b068fc378daa952ba7f163c4a11628f55a4df523b3ef92918290030190a35060019392505050565b60035460ff1681565b60045481565b6002805460408051602060018416156101000260001901909316849004601f810184900484028201840190925281815292918301828280156103215780601f106102f657610100808354040283529160200191610321565b600160a060020a031660009081526005602052604090205490565b6000805460408051602060026001851615610100026000190190941693909304601f810184900484028201840190925281815292918301828280156103215780601f106102f657610100808354040283529160200191610321565b6000600160a060020a03831615156105ea57600080fd5b3360009081526005602052604090205482111561060657600080fd5b33600090815260056020526040902054610626908363ffffffff6106e116565b3360009081526005602052604080822092909255600160a060020a03851681522054610658908363ffffffff61075816565b600160a060020a0384166000818152600560209081526040918290209390935580518581529051919233927fddf252ad1be2c89b69c2b068fc378daa952ba7f163c4a11628f55a4df523b3ef9281900390910190a350600192915050565b600160a060020a03918216600090815260066020908152604080832093909416825291909152205490565b60008282111561075257604080517f08c379a000000000000000000000000000000000000000000000000000000000815260206004820181905260248201527f536166654d6174684c69622e7375623a2072657175697265642062203c3d2061604482015290519081900360640190fd5b50900390565b8181018281101561038a57604080517f08c379a000000000000000000000000000000000000000000000000000000000815260206004820181905260248201527f536166654d6174684c69622e6164643a2072657175697265642063203e3d2061604482015290519081900360640190fd00a165627a7a72305820a87a64f690e4a71c5e6369d4d458ce28b75db40f7df1749a920a57a9c44a4faa0029",
  "source": "pragma solidity ^0.4.26;\r\n\r\nimport \"./IERC20.sol\";\r\nimport \"./SafeMathLib.sol\";\r\n\r\n// ----------------------------------------------------------------------------\r\n// ERC20 token base contract to extend from\r\n//\r\n// Symbol      : to be defined\r\n// Name        : to be defined\r\n// Total supply: to be defined\r\n// Decimals    : to be defined\r\n//\r\n\r\n// ----------------------------------------------------------------------------\r\n// ERC20 Token base to be used by any ERC20 token contract\r\n// ----------------------------------------------------------------------------\r\n\r\ncontract ERC20TokenBase is IERC20\r\n{\r\n    using SafeMathLib for uint;\r\n\t\r\n    string public symbol;\r\n    string public name;\r\n\tstring public standard;\r\n\t\r\n    uint8 public decimals;\r\n\t\r\n    uint public _totalSupply;\r\n\t\r\n    mapping(address => uint) balances;\r\n\t\r\n\tmapping(address => mapping(address => uint)) allowed;\r\n\t\r\n\t\r\n\t\r\n\t// ------------------------------------------------------------------------\r\n    // Constructor\r\n    // ------------------------------------------------------------------------\r\n    constructor(string memory _symbol, string memory _name, string memory _standard, uint8 _decimals, uint _initialSupply) public\r\n\t{\r\n\t\tsymbol = _symbol;\r\n        name = _name;\r\n\t\tstandard = _standard;\r\n\t\t\r\n        decimals = _decimals;\r\n\t\t\r\n        _totalSupply = _initialSupply * 10**uint(decimals);\r\n\t\t\r\n        balances[msg.sender] = _totalSupply;\r\n        emit Transfer(address(0), msg.sender, _totalSupply);\r\n    }\r\n\t\r\n\t\r\n\t\r\n    // ------------------------------------------------------------------------\r\n    // Total supply\r\n    // ------------------------------------------------------------------------\r\n\tfunction totalSupply() public view returns (uint) {\r\n        return _totalSupply;\r\n    }\r\n\t\r\n\t\r\n\t\r\n    // ------------------------------------------------------------------------\r\n    // Get the token balance for account `tokenOwner`\r\n    // ------------------------------------------------------------------------\r\n    function balanceOf(address tokenOwner) public view returns (uint balance) {\r\n        return balances[tokenOwner];\r\n    }\r\n\t\r\n\t\r\n\t\r\n    // ------------------------------------------------------------------------\r\n    // Transfer the balance from token owner's account to `to` account\r\n    // - Owner's account must have sufficient balance to transfer\r\n    // - 0 value transfers are allowed\r\n    // ------------------------------------------------------------------------\r\n    function transfer(address to, uint tokens) public returns (bool success) {\r\n\t\trequire(to != address(0));\r\n\t\trequire(balances[msg.sender] >= tokens);\r\n\t\t\r\n\t\tbalances[msg.sender] = balances[msg.sender].sub(tokens);\r\n        balances[to] = balances[to].add(tokens);\r\n\t\t\r\n\t\temit Transfer(msg.sender, to, tokens);\r\n\r\n        return true;\r\n    }\r\n\t\r\n\t\r\n\t\r\n    // ------------------------------------------------------------------------\r\n    // Token owner can approve for `spender` to transferFrom(...) `tokens`\r\n    // from the token owner's account\r\n    // ------------------------------------------------------------------------\r\n    function approve(address spender, uint tokens) public returns (bool success) {\r\n\r\n        allowed[msg.sender][spender] = tokens;\r\n\r\n        emit Approval(msg.sender, spender, tokens);\r\n\r\n        return true;\r\n    }\r\n\r\n\r\n\r\n    // ------------------------------------------------------------------------\r\n    // Transfer `tokens` from the `from` account to the `to` account\r\n    //\r\n    // The calling account must already have sufficient tokens approve(...)-d\r\n    // for spending from the `from` account and\r\n    // - From account must have sufficient balance to transfer\r\n    // - Spender must have sufficient allowance to transfer\r\n    // - 0 value transfers are allowed\r\n\t///*** The user executing the function pays the transfer fees, not the funds owner\r\n    // ------------------------------------------------------------------------\r\n    function transferFrom(address from, address to, uint tokens) public returns (bool success) {\r\n\t\trequire(tokens <= balances[from]);\r\n        require(tokens <= allowed[from][msg.sender]);\r\n\t\t\r\n\t\tbalances[from] = balances[from].sub(tokens);\r\n\t\t\r\n        allowed[from][msg.sender] = allowed[from][msg.sender].sub(tokens);\r\n\t\t\r\n        balances[to] = balances[to].add(tokens);\r\n\t\t\r\n\t\temit Transfer(from, to, tokens);\r\n\t\t\r\n        return true;\r\n    }\r\n\t\r\n\t\r\n\t\r\n    // ------------------------------------------------------------------------\r\n    // Returns the amount of tokens approved by the owner that can be\r\n    // transferred to the spender's account\r\n    // ------------------------------------------------------------------------\r\n    function allowance(address tokenOwner, address spender) public view returns (uint remaining) {\r\n        return allowed[tokenOwner][spender];\r\n    }\r\n}",
  "sourcePath": "C:\\Users\\Homeuser\\Desktop\\FITH-token-sale-v0.4.26\\contracts\\ERC20TokenBase.sol",
  "compiler": {
    "name": "solc",
    "version": "0.4.26+commit.4563c3fc.Emscripten.clang"
  },
  "schemaVersion": "3.0.5",
  "updatedAt": "2020-08-30T21:03:52.133Z",
  "devdoc": {
    "methods": {}
  },
  "userdoc": {
    "methods": {
      "transferFrom(address,address,uint256)": {
        "notice": "*** The user executing the function pays the transfer fees, not the funds owner"
      }
    }
  }
}