{
  "contractName": "FITHTokenSale",
  "abi": [
    {
      "constant": true,
      "inputs": [],
      "name": "tokensSold",
      "outputs": [
        {
          "name": "",
          "type": "uint256"
        }
      ],
      "payable": false,
      "stateMutability": "view",
      "type": "function",
      "signature": "0x518ab2a8"
    },
    {
      "constant": true,
      "inputs": [],
      "name": "tokenContract",
      "outputs": [
        {
          "name": "",
          "type": "address"
        }
      ],
      "payable": false,
      "stateMutability": "view",
      "type": "function",
      "signature": "0x55a373d6"
    },
    {
      "constant": true,
      "inputs": [],
      "name": "tokenPrice",
      "outputs": [
        {
          "name": "",
          "type": "uint256"
        }
      ],
      "payable": false,
      "stateMutability": "view",
      "type": "function",
      "signature": "0x7ff9b596"
    },
    {
      "constant": true,
      "inputs": [],
      "name": "owner",
      "outputs": [
        {
          "name": "",
          "type": "address"
        }
      ],
      "payable": false,
      "stateMutability": "view",
      "type": "function",
      "signature": "0x8da5cb5b"
    },
    {
      "inputs": [
        {
          "name": "_tokenContract",
          "type": "address"
        },
        {
          "name": "_tokenPrice",
          "type": "uint256"
        }
      ],
      "payable": false,
      "stateMutability": "nonpayable",
      "type": "constructor",
      "signature": "constructor"
    },
    {
      "payable": true,
      "stateMutability": "payable",
      "type": "fallback"
    },
    {
      "anonymous": false,
      "inputs": [
        {
          "indexed": false,
          "name": "_buyer",
          "type": "address"
        },
        {
          "indexed": false,
          "name": "_amount",
          "type": "uint256"
        },
        {
          "indexed": false,
          "name": "_tokensSold",
          "type": "uint256"
        }
      ],
      "name": "TokensBought",
      "type": "event",
      "signature": "0x8442948036198f1146d3a63c3db355d7e0295c2cc5676c755990445da4fdc1c9"
    },
    {
      "anonymous": false,
      "inputs": [
        {
          "indexed": false,
          "name": "_admin",
          "type": "address"
        },
        {
          "indexed": false,
          "name": "_tokenPrice",
          "type": "uint256"
        }
      ],
      "name": "TokenPriceUpdate",
      "type": "event",
      "signature": "0x0fd676231a7567664039111533b8f8d5e95e67c3ee0168864ceb04c90077741e"
    },
    {
      "constant": true,
      "inputs": [],
      "name": "tokensAvailable",
      "outputs": [
        {
          "name": "",
          "type": "uint256"
        }
      ],
      "payable": false,
      "stateMutability": "view",
      "type": "function",
      "signature": "0x60659a92"
    },
    {
      "constant": false,
      "inputs": [
        {
          "name": "_tokenPrice",
          "type": "uint256"
        }
      ],
      "name": "updateTokenPrice",
      "outputs": [],
      "payable": false,
      "stateMutability": "nonpayable",
      "type": "function",
      "signature": "0x676c0d77"
    },
    {
      "constant": false,
      "inputs": [
        {
          "name": "_numberOfTokens",
          "type": "uint256"
        }
      ],
      "name": "buyTokens",
      "outputs": [],
      "payable": true,
      "stateMutability": "payable",
      "type": "function",
      "signature": "0x3610724e"
    },
    {
      "constant": false,
      "inputs": [],
      "name": "endSale",
      "outputs": [],
      "payable": false,
      "stateMutability": "nonpayable",
      "type": "function",
      "signature": "0x380d831b"
    },
    {
      "constant": false,
      "inputs": [
        {
          "name": "tokenAddress",
          "type": "address"
        },
        {
          "name": "tokens",
          "type": "uint256"
        }
      ],
      "name": "recoverAnyERC20Token",
      "outputs": [
        {
          "name": "ok",
          "type": "bool"
        }
      ],
      "payable": false,
      "stateMutability": "nonpayable",
      "type": "function",
      "signature": "0xa50d4005"
    }
  ],
  "bytecode": "0x608060405234801561001057600080fd5b50604051604080610ae383398101604052805160209091015160008054600160a060020a0319163317815581116100ce57604080517f08c379a000000000000000000000000000000000000000000000000000000000815260206004820152602660248201527f5f746f6b656e50726963652067726561746572207468616e207a65726f20726560448201527f7175697265640000000000000000000000000000000000000000000000000000606482015290519081900360840190fd5b60018054600160a060020a031916600160a060020a0393909316929092179091556002556109e2806101016000396000f3006080604052600436106100985763ffffffff7c01000000000000000000000000000000000000000000000000000000006000350416633610724e81146100be578063380d831b146100cb578063518ab2a8146100e057806355a373d61461010757806360659a9214610138578063676c0d771461014d5780637ff9b596146101655780638da5cb5b1461017a578063a50d40051461018f575b60006100af600254346101c790919063ffffffff16565b90506100ba81610233565b5050005b6100c96004356103fb565b005b3480156100d757600080fd5b506100c9610463565b3480156100ec57600080fd5b506100f56106b1565b60408051918252519081900360200190f35b34801561011357600080fd5b5061011c6106b7565b60408051600160a060020a039092168252519081900360200190f35b34801561014457600080fd5b506100f56106c6565b34801561015957600080fd5b506100c960043561075c565b34801561017157600080fd5b506100f561089b565b34801561018657600080fd5b5061011c6108a1565b34801561019b57600080fd5b506101b3600160a060020a03600435166024356108b0565b604080519115158252519081900360200190f35b6000808211610220576040805160e560020a62461bcd02815260206004820152601f60248201527f536166654d6174684c69622e6469763a2072657175697265642062203e203000604482015290519081900360640190fd5b818381151561022b57fe5b049392505050565b60008161023e6106c6565b10156102ba576040805160e560020a62461bcd02815260206004820152602a60248201527f696e73756666696369656e7420746f6b656e73206f6e20746f6b656e2d73616c60448201527f6520636f6e747261637400000000000000000000000000000000000000000000606482015290519081900360840190fd5b600154604080517fa9059cbb000000000000000000000000000000000000000000000000000000008152336004820152602481018590529051600160a060020a039092169163a9059cbb916044808201926020929091908290030181600087803b15801561032757600080fd5b505af115801561033b573d6000803e3d6000fd5b505050506040513d602081101561035157600080fd5b505115156103a9576040805160e560020a62461bcd02815260206004820152601f60248201527f5472616e7366657220746f6b656e7320746f206275796572206661696c656400604482015290519081900360640190fd5b60038054830190819055604080513381526020810185905280820192909252517f8442948036198f1146d3a63c3db355d7e0295c2cc5676c755990445da4fdc1c99181900360600190a1506001919050565b60025481023414610456576040805160e560020a62461bcd02815260206004820152601a60248201527f496e636f7272656374206e756d626572206f6620746f6b656e73000000000000604482015290519081900360640190fd5b61045f81610233565b5050565b600054600160a060020a031633146104c5576040805160e560020a62461bcd02815260206004820152600e60248201527f4f776e6572207265717569726564000000000000000000000000000000000000604482015290519081900360640190fd5b60015460008054604080517f70a082310000000000000000000000000000000000000000000000000000000081523060048201529051600160a060020a039485169463a9059cbb9493169285926370a082319260248083019360209383900390910190829087803b15801561053957600080fd5b505af115801561054d573d6000803e3d6000fd5b505050506040513d602081101561056357600080fd5b5051604080517c010000000000000000000000000000000000000000000000000000000063ffffffff8616028152600160a060020a03909316600484015260248301919091525160448083019260209291908290030181600087803b1580156105cb57600080fd5b505af11580156105df573d6000803e3d6000fd5b505050506040513d60208110156105f557600080fd5b50511515610673576040805160e560020a62461bcd02815260206004820152603160248201527f5472616e7366657220746f6b656e2d73616c6520746f6b656e2062616c616e6360448201527f6520746f206f776e6572206661696c6564000000000000000000000000000000606482015290519081900360840190fd5b60008054604051600160a060020a0390911691303180156108fc02929091818181858888f193505050501580156106ae573d6000803e3d6000fd5b50565b60035481565b600154600160a060020a031681565b600154604080517f70a082310000000000000000000000000000000000000000000000000000000081523060048201529051600092600160a060020a0316916370a0823191602480830192602092919082900301818787803b15801561072b57600080fd5b505af115801561073f573d6000803e3d6000fd5b505050506040513d602081101561075557600080fd5b5051905090565b600054600160a060020a031633146107be576040805160e560020a62461bcd02815260206004820152600e60248201527f4f776e6572207265717569726564000000000000000000000000000000000000604482015290519081900360640190fd5b6000811180156107d057506002548114155b151561084c576040805160e560020a62461bcd02815260206004820152602481018290527f546f6b656e207072696365206d7573742062652067726561746572207468616e60448201527f207a65726f20616e6420646966666572656e74207468616e2063757272656e74606482015290519081900360840190fd5b600281905560005460408051600160a060020a0390921682526020820183905280517f0fd676231a7567664039111533b8f8d5e95e67c3ee0168864ceb04c90077741e9281900390910190a150565b60025481565b600054600160a060020a031681565b60008054600160a060020a03163314610913576040805160e560020a62461bcd02815260206004820152600e60248201527f4f776e6572207265717569726564000000000000000000000000000000000000604482015290519081900360640190fd5b60008054604080517fa9059cbb000000000000000000000000000000000000000000000000000000008152600160a060020a0392831660048201526024810186905290519186169263a9059cbb926044808401936020939083900390910190829087803b15801561098357600080fd5b505af1158015610997573d6000803e3d6000fd5b505050506040513d60208110156109ad57600080fd5b505193925050505600a165627a7a72305820fcc9e6d322a6d4db42310a8fd2af7a54c81e84c121044cee5082c4c93da3a5460029",
  "source": "pragma solidity ^0.4.26;\n\nimport \"./IERC20.sol\";\nimport \"./Owned.sol\";\nimport \"./SafeMathLib.sol\";\n\n/**\n * @dev Fiatech FITH token sale contract.\n */\ncontract FITHTokenSale is Owned\n{\n\tusing SafeMathLib for uint;\n\t\n    IERC20 public tokenContract;\n\t\n\tuint256 public tokenPrice;\n    uint256 public tokensSold;\n\t\n\t// tokens bought event raised when buyer purchases tokens\n    event TokensBought(address _buyer, uint256 _amount, uint256 _tokensSold);\n\t\n\t// token price update event\n\tevent TokenPriceUpdate(address _admin, uint256 _tokenPrice);\n\t\n\t\n\t\n\t/**\n\t * @dev Constructor\n\t */\n    constructor(IERC20 _tokenContract, uint256 _tokenPrice) public\n\t{\n\t\trequire(_tokenPrice > 0, \"_tokenPrice greater than zero required\");\n\t\t\n        tokenContract = _tokenContract;\n        tokenPrice = _tokenPrice;\n    }\n\t\n\tfunction tokensAvailable() public view returns (uint) {\n\t\treturn tokenContract.balanceOf(address(this));\n\t}\n\t\n\t\n\t\n\tfunction _buyTokens(uint256 _numberOfTokens) internal returns(bool) {\n        require(tokensAvailable() >= _numberOfTokens, \"insufficient tokens on token-sale contract\");\n        require(tokenContract.transfer(msg.sender, _numberOfTokens), \"Transfer tokens to buyer failed\");\n\t\t\n        tokensSold += _numberOfTokens;\n\t\t\n        emit TokensBought(msg.sender, _numberOfTokens, tokensSold);\n\t\treturn true;\n    }\n\t\n\tfunction updateTokenPrice(uint256 _tokenPrice) public onlyOwner {\n        require(_tokenPrice > 0 && _tokenPrice != tokenPrice, \"Token price must be greater than zero and different than current\");\n        \n\t\ttokenPrice = _tokenPrice;\n\t\temit TokenPriceUpdate(owner, _tokenPrice);\n    }\n\t\n    function buyTokens(uint256 _numberOfTokens) public payable {\n        require(msg.value == (_numberOfTokens * tokenPrice), \"Incorrect number of tokens\");\n        _buyTokens(_numberOfTokens);\n    }\n\t\n    function endSale() public onlyOwner {\n        require(tokenContract.transfer(owner, tokenContract.balanceOf(address(this))), \"Transfer token-sale token balance to owner failed\");\n\t\t\n        // Just transfer the ether balance to the owner\n        owner.transfer(address(this).balance);\n    }\n\t\n\t/**\n\t * Accept ETH for tokens\n\t */\n    function () external payable {\n\t\tuint tks = (msg.value).div(tokenPrice);\n\t\t_buyTokens(tks);\n    }\n\t\n\t\n\t\n\t/**\n\t * @dev Owner can transfer out (recover) any ERC20 tokens accidentally sent to this contract.\n\t * @param tokenAddress Token contract address we want to recover lost tokens from.\n\t * @param tokens Amount of tokens to be recovered, usually the same as the balance of this contract.\n\t * @return bool\n\t */\n    function recoverAnyERC20Token(address tokenAddress, uint tokens) external onlyOwner returns (bool ok) {\n\t\tok = IERC20(tokenAddress).transfer(owner, tokens);\n    }\n}",
  "sourcePath": "C:\\Users\\Homeuser\\Desktop\\FITH-token-sale-v0.4.26\\contracts\\FITHTokenSale.sol",
  "compiler": {
    "name": "solc",
    "version": "0.4.26+commit.4563c3fc.Emscripten.clang"
  },
  "schemaVersion": "3.0.5",
  "updatedAt": "2020-08-30T21:03:57.566Z",
  "devdoc": {
    "methods": {
      "recoverAnyERC20Token(address,uint256)": {
        "details": "Owner can transfer out (recover) any ERC20 tokens accidentally sent to this contract.",
        "params": {
          "tokenAddress": "Token contract address we want to recover lost tokens from.",
          "tokens": "Amount of tokens to be recovered, usually the same as the balance of this contract."
        },
        "return": "bool"
      }
    }
  },
  "userdoc": {
    "methods": {}
  }
}