{
  "contractName": "FITHTokenSaleReferrals",
  "abi": [
    {
      "constant": true,
      "inputs": [],
      "name": "referralPercent",
      "outputs": [
        {
          "name": "",
          "type": "uint256"
        }
      ],
      "payable": false,
      "stateMutability": "view",
      "type": "function",
      "signature": "0x343dfb7e"
    },
    {
      "constant": false,
      "inputs": [
        {
          "name": "_numberOfTokens",
          "type": "uint256"
        }
      ],
      "name": "buyTokens",
      "outputs": [],
      "payable": true,
      "stateMutability": "payable",
      "type": "function",
      "signature": "0x3610724e"
    },
    {
      "constant": false,
      "inputs": [],
      "name": "endSale",
      "outputs": [],
      "payable": false,
      "stateMutability": "nonpayable",
      "type": "function",
      "signature": "0x380d831b"
    },
    {
      "constant": true,
      "inputs": [],
      "name": "tokensSold",
      "outputs": [
        {
          "name": "",
          "type": "uint256"
        }
      ],
      "payable": false,
      "stateMutability": "view",
      "type": "function",
      "signature": "0x518ab2a8"
    },
    {
      "constant": true,
      "inputs": [],
      "name": "tokenContract",
      "outputs": [
        {
          "name": "",
          "type": "address"
        }
      ],
      "payable": false,
      "stateMutability": "view",
      "type": "function",
      "signature": "0x55a373d6"
    },
    {
      "constant": true,
      "inputs": [],
      "name": "tokensAvailable",
      "outputs": [
        {
          "name": "",
          "type": "uint256"
        }
      ],
      "payable": false,
      "stateMutability": "view",
      "type": "function",
      "signature": "0x60659a92"
    },
    {
      "constant": false,
      "inputs": [
        {
          "name": "_tokenPrice",
          "type": "uint256"
        }
      ],
      "name": "updateTokenPrice",
      "outputs": [],
      "payable": false,
      "stateMutability": "nonpayable",
      "type": "function",
      "signature": "0x676c0d77"
    },
    {
      "constant": true,
      "inputs": [],
      "name": "referralTokensSpent",
      "outputs": [
        {
          "name": "",
          "type": "uint256"
        }
      ],
      "payable": false,
      "stateMutability": "view",
      "type": "function",
      "signature": "0x7f510ac0"
    },
    {
      "constant": true,
      "inputs": [],
      "name": "tokenPrice",
      "outputs": [
        {
          "name": "",
          "type": "uint256"
        }
      ],
      "payable": false,
      "stateMutability": "view",
      "type": "function",
      "signature": "0x7ff9b596"
    },
    {
      "constant": true,
      "inputs": [],
      "name": "owner",
      "outputs": [
        {
          "name": "",
          "type": "address"
        }
      ],
      "payable": false,
      "stateMutability": "view",
      "type": "function",
      "signature": "0x8da5cb5b"
    },
    {
      "constant": false,
      "inputs": [
        {
          "name": "tokenAddress",
          "type": "address"
        },
        {
          "name": "tokens",
          "type": "uint256"
        }
      ],
      "name": "recoverAnyERC20Token",
      "outputs": [
        {
          "name": "ok",
          "type": "bool"
        }
      ],
      "payable": false,
      "stateMutability": "nonpayable",
      "type": "function",
      "signature": "0xa50d4005"
    },
    {
      "inputs": [
        {
          "name": "_tokenContract",
          "type": "address"
        },
        {
          "name": "_tokenPrice",
          "type": "uint256"
        }
      ],
      "payable": false,
      "stateMutability": "nonpayable",
      "type": "constructor",
      "signature": "constructor"
    },
    {
      "payable": true,
      "stateMutability": "payable",
      "type": "fallback"
    },
    {
      "anonymous": false,
      "inputs": [
        {
          "indexed": true,
          "name": "_buyer",
          "type": "address"
        },
        {
          "indexed": true,
          "name": "_referer",
          "type": "address"
        },
        {
          "indexed": false,
          "name": "_refererTokens",
          "type": "uint256"
        }
      ],
      "name": "ReferralTokens",
      "type": "event",
      "signature": "0x93e85bd1fc723a7afcbf391dbe77b3eb9eee8426f16e09687b58251274bd73b6"
    },
    {
      "anonymous": false,
      "inputs": [
        {
          "indexed": false,
          "name": "_admin",
          "type": "address"
        },
        {
          "indexed": false,
          "name": "_referralPercent",
          "type": "uint256"
        }
      ],
      "name": "ReferralTokenPercentUpdate",
      "type": "event",
      "signature": "0x3ccd72f0e0af595b60e0cc9af6ecf8af632f3ddee21b680b1b86a578ec99bd02"
    },
    {
      "anonymous": false,
      "inputs": [
        {
          "indexed": false,
          "name": "_buyer",
          "type": "address"
        },
        {
          "indexed": false,
          "name": "_amount",
          "type": "uint256"
        },
        {
          "indexed": false,
          "name": "_tokensSold",
          "type": "uint256"
        }
      ],
      "name": "TokensBought",
      "type": "event",
      "signature": "0x8442948036198f1146d3a63c3db355d7e0295c2cc5676c755990445da4fdc1c9"
    },
    {
      "anonymous": false,
      "inputs": [
        {
          "indexed": false,
          "name": "_admin",
          "type": "address"
        },
        {
          "indexed": false,
          "name": "_tokenPrice",
          "type": "uint256"
        }
      ],
      "name": "TokenPriceUpdate",
      "type": "event",
      "signature": "0x0fd676231a7567664039111533b8f8d5e95e67c3ee0168864ceb04c90077741e"
    },
    {
      "constant": false,
      "inputs": [
        {
          "name": "_referralPercent",
          "type": "uint256"
        }
      ],
      "name": "updateReferralPercent",
      "outputs": [],
      "payable": false,
      "stateMutability": "nonpayable",
      "type": "function",
      "signature": "0x1abe8906"
    }
  ],
  "bytecode": "0x60806040526005600455600060055534801561001a57600080fd5b5060405160408061106883398101604052805160209091015160008054600160a060020a031916331781558290829081116100dc57604080517f08c379a000000000000000000000000000000000000000000000000000000000815260206004820152602660248201527f5f746f6b656e50726963652067726561746572207468616e207a65726f20726560448201527f7175697265640000000000000000000000000000000000000000000000000000606482015290519081900360840190fd5b60018054600160a060020a03909316600160a060020a0319909316929092179091556002555050610f56806101126000396000f3006080604052600436106100b95763ffffffff7c01000000000000000000000000000000000000000000000000000000006000350416631abe89068114610131578063343dfb7e1461014b5780633610724e14610172578063380d831b1461017d578063518ab2a81461019257806355a373d6146101a757806360659a92146101d8578063676c0d77146101ed5780637f510ac0146102055780637ff9b5961461021a5780638da5cb5b1461022f578063a50d400514610244575b60008060606100d36002543461027c90919063ffffffff16565b9250600091506000368080601f016020809104026020016040519081016040528093929190818152602001838380828437820191505050505050905060048151111561012157601481015191505b61012b83836102e8565b50505050005b34801561013d57600080fd5b506101496004356105b4565b005b34801561015757600080fd5b50610160610715565b60408051918252519081900360200190f35b61014960043561071b565b34801561018957600080fd5b50610149610783565b34801561019e57600080fd5b506101606109bf565b3480156101b357600080fd5b506101bc6109c5565b60408051600160a060020a039092168252519081900360200190f35b3480156101e457600080fd5b506101606109d4565b3480156101f957600080fd5b50610149600435610a6a565b34801561021157600080fd5b50610160610b97565b34801561022657600080fd5b50610160610b9d565b34801561023b57600080fd5b506101bc610ba3565b34801561025057600080fd5b50610268600160a060020a0360043516602435610bb2565b604080519115158252519081900360200190f35b60008082116102d5576040805160e560020a62461bcd02815260206004820152601f60248201527f536166654d6174684c69622e6469763a2072657175697265642062203e203000604482015290519081900360640190fd5b81838115156102e057fe5b049392505050565b60008060006102f685610ca6565b151561034c576040805160e560020a62461bcd02815260206004820152601760248201527f5f627579546f6b656e732062617365206661696c656421000000000000000000604482015290519081900360640190fd5b6000600160a060020a03851611156105a957839150600160a060020a0382163314156103c2576040805160e560020a62461bcd02815260206004820152601160248201527f526566657265722069732073656e646572000000000000000000000000000000604482015290519081900360640190fd5b6103e860646103dc60045488610e6e90919063ffffffff16565b9063ffffffff61027c16565b9050806103f36109d4565b1015610449576040805160e560020a62461bcd02815260206004820152601c60248201527f696e73756666696369656e7420726566657272616c20746f6b656e7300000000604482015290519081900360640190fd5b600154604080517fa9059cbb000000000000000000000000000000000000000000000000000000008152600160a060020a038581166004830152602482018590529151919092169163a9059cbb9160448083019260209291908290030181600087803b1580156104b857600080fd5b505af11580156104cc573d6000803e3d6000fd5b505050506040513d60208110156104e257600080fd5b50511515610560576040805160e560020a62461bcd02815260206004820152602160248201527f5472616e7366657220746f6b656e7320746f2072656665726572206661696c6560448201527f6400000000000000000000000000000000000000000000000000000000000000606482015290519081900360840190fd5b6005805482019055604080518281529051600160a060020a0384169133917f93e85bd1fc723a7afcbf391dbe77b3eb9eee8426f16e09687b58251274bd73b69181900360200190a35b506001949350505050565b600054600160a060020a03163314610604576040805160e560020a62461bcd02815260206004820152600e6024820152600080516020610f0b833981519152604482015290519081900360640190fd5b600081118015610615575060648111155b801561062357506004548114155b15156106c6576040805160e560020a62461bcd028152602060048201526044602482018190527f526566657272616c2070657263656e74206d75737420626520696e2028302c31908201527f30305d2072616e676520616e6420646966666572656e74207468616e2063757260648201527f72656e7400000000000000000000000000000000000000000000000000000000608482015290519081900360a40190fd5b600481905560005460408051600160a060020a0390921682526020820183905280517f3ccd72f0e0af595b60e0cc9af6ecf8af632f3ddee21b680b1b86a578ec99bd029281900390910190a150565b60045481565b60025481023414610776576040805160e560020a62461bcd02815260206004820152601a60248201527f496e636f7272656374206e756d626572206f6620746f6b656e73000000000000604482015290519081900360640190fd5b61077f81610ca6565b5050565b600054600160a060020a031633146107d3576040805160e560020a62461bcd02815260206004820152600e6024820152600080516020610f0b833981519152604482015290519081900360640190fd5b60015460008054604080517f70a082310000000000000000000000000000000000000000000000000000000081523060048201529051600160a060020a039485169463a9059cbb9493169285926370a082319260248083019360209383900390910190829087803b15801561084757600080fd5b505af115801561085b573d6000803e3d6000fd5b505050506040513d602081101561087157600080fd5b5051604080517c010000000000000000000000000000000000000000000000000000000063ffffffff8616028152600160a060020a03909316600484015260248301919091525160448083019260209291908290030181600087803b1580156108d957600080fd5b505af11580156108ed573d6000803e3d6000fd5b505050506040513d602081101561090357600080fd5b50511515610981576040805160e560020a62461bcd02815260206004820152603160248201527f5472616e7366657220746f6b656e2d73616c6520746f6b656e2062616c616e6360448201527f6520746f206f776e6572206661696c6564000000000000000000000000000000606482015290519081900360840190fd5b60008054604051600160a060020a0390911691303180156108fc02929091818181858888f193505050501580156109bc573d6000803e3d6000fd5b50565b60035481565b600154600160a060020a031681565b600154604080517f70a082310000000000000000000000000000000000000000000000000000000081523060048201529051600092600160a060020a0316916370a0823191602480830192602092919082900301818787803b158015610a3957600080fd5b505af1158015610a4d573d6000803e3d6000fd5b505050506040513d6020811015610a6357600080fd5b5051905090565b600054600160a060020a03163314610aba576040805160e560020a62461bcd02815260206004820152600e6024820152600080516020610f0b833981519152604482015290519081900360640190fd5b600081118015610acc57506002548114155b1515610b48576040805160e560020a62461bcd02815260206004820152602481018290527f546f6b656e207072696365206d7573742062652067726561746572207468616e60448201527f207a65726f20616e6420646966666572656e74207468616e2063757272656e74606482015290519081900360840190fd5b600281905560005460408051600160a060020a0390921682526020820183905280517f0fd676231a7567664039111533b8f8d5e95e67c3ee0168864ceb04c90077741e9281900390910190a150565b60055481565b60025481565b600054600160a060020a031681565b60008054600160a060020a03163314610c03576040805160e560020a62461bcd02815260206004820152600e6024820152600080516020610f0b833981519152604482015290519081900360640190fd5b60008054604080517fa9059cbb000000000000000000000000000000000000000000000000000000008152600160a060020a0392831660048201526024810186905290519186169263a9059cbb926044808401936020939083900390910190829087803b158015610c7357600080fd5b505af1158015610c87573d6000803e3d6000fd5b505050506040513d6020811015610c9d57600080fd5b50519392505050565b600081610cb16109d4565b1015610d2d576040805160e560020a62461bcd02815260206004820152602a60248201527f696e73756666696369656e7420746f6b656e73206f6e20746f6b656e2d73616c60448201527f6520636f6e747261637400000000000000000000000000000000000000000000606482015290519081900360840190fd5b600154604080517fa9059cbb000000000000000000000000000000000000000000000000000000008152336004820152602481018590529051600160a060020a039092169163a9059cbb916044808201926020929091908290030181600087803b158015610d9a57600080fd5b505af1158015610dae573d6000803e3d6000fd5b505050506040513d6020811015610dc457600080fd5b50511515610e1c576040805160e560020a62461bcd02815260206004820152601f60248201527f5472616e7366657220746f6b656e7320746f206275796572206661696c656400604482015290519081900360640190fd5b60038054830190819055604080513381526020810185905280820192909252517f8442948036198f1146d3a63c3db355d7e0295c2cc5676c755990445da4fdc1c99181900360600190a1506001919050565b818102821580610e885750818382811515610e8557fe5b04145b1515610f04576040805160e560020a62461bcd02815260206004820152603060248201527f536166654d6174684c69622e6d756c3a207265717569726564202861203d3d2060448201527f30207c7c2063202f2061203d3d20622900000000000000000000000000000000606482015290519081900360840190fd5b9291505056004f776e6572207265717569726564000000000000000000000000000000000000a165627a7a723058203cd4f5596e668215cfc91cd57d8ee58f1d0093379e87768dc41f8539b7c3e9610029",
  "source": "pragma solidity ^0.4.26;\n\nimport \"./IERC20.sol\";\nimport \"./SafeMathLib.sol\";\nimport \"./FITHTokenSale.sol\";\n\n/**\n * @dev Fiatech FITH token sale contract.\n */\ncontract FITHTokenSaleReferrals is FITHTokenSale\n{\n\tusing SafeMathLib for uint;\n\t\n\tuint public referralPercent = 5; // x is x%\n\tuint public referralTokensSpent = 0; // total referral tokens given away\n\t\n\t// referral tokens bought event raised when buyer purchases tokens via referral link\n    event ReferralTokens(address indexed _buyer, address indexed _referer, uint256 _refererTokens);\n\t\n\t// referral token percent update event\n\tevent ReferralTokenPercentUpdate(address _admin, uint256 _referralPercent);\n\t\n\t\n\t\n\t/**\n\t * @dev Constructor\n\t */\n    constructor(IERC20 _tokenContract, uint256 _tokenPrice)\n\t\tFITHTokenSale(_tokenContract, _tokenPrice)\n\t\tpublic\n\t{\n    }\n\t\n\t\n\t\n\t//referer is address instead of string\n\tfunction _buyTokens(uint256 _numberOfTokens, address refererAddress) internal returns(bool) {\n\t\t\n\t\trequire(super._buyTokens(_numberOfTokens), \"_buyTokens base failed!\");\n\t\t\n\t\t// only send referral tokens if buyer has a valid referer\n\t\tif (refererAddress > address(0)) {\n\t\t\t\n\t\t\taddress referer = refererAddress;\n\t\t\t\n\t\t\t// self-referrer check\n\t\t\trequire(referer != msg.sender, \"Referer is sender\");\n\t\t\tuint refererTokens = _numberOfTokens.mul(referralPercent).div(100);\n\t\t\t\n\t\t\t// bonus for referrer\n\t\t\trequire(tokensAvailable() >= refererTokens, \"insufficient referral tokens\");\n\t\t\trequire(tokenContract.transfer(referer, refererTokens), \"Transfer tokens to referer failed\");\n\t\t\t\n\t\t\treferralTokensSpent += refererTokens;\n\t\t\t\n\t\t\temit ReferralTokens(msg.sender, referer, refererTokens);\n\t\t}\n\t\treturn true;\n    }\n\t\n\tfunction updateReferralPercent(uint256 _referralPercent) public onlyOwner {\n        require(_referralPercent > 0 && _referralPercent <= 100 && _referralPercent != referralPercent, \"Referral percent must be in (0,100] range and different than current\");\n        \n\t\treferralPercent = _referralPercent;\n\t\temit ReferralTokenPercentUpdate(owner, _referralPercent);\n    }\n\t\n\t/*function buyTokens(uint256 _numberOfTokens, address refererAddress) public payable {\n        require(msg.value == (_numberOfTokens * tokenPrice), \"Incorrect number of tokens\");\n\t\t_buyTokens(_numberOfTokens, refererAddress);\n    }*/\n\t\n\t\n\t\n\t/**\n\t * Accept ETH for tokens\n\t */\n    function () external payable {\n\t\tuint tks = (msg.value).div(tokenPrice);\n\t\t\n\t\t// (c, d) = abi.decode(msg.data[4:], (uint256, uint256));\n\t\t//address refererAddress = abi.decode(msg.data[4:], (address));\n\t\t\n\t\taddress refererAddress = address(0);\n\t\tbytes memory msgData = msg.data;\n\t\t// 4 bytes for signature\n\t\tif (msgData.length > 4) {\n\t\t\tassembly {\n\t\t\t\trefererAddress := mload(add(msgData, 20))\n\t\t\t}\n\t\t}\n\t\t\n\t\t_buyTokens(tks, refererAddress);\n    }\n}",
  "sourcePath": "C:\\Users\\Homeuser\\Desktop\\FITH-token-sale-v0.4.26\\contracts\\FITHTokenSaleReferrals.sol",
  "compiler": {
    "name": "solc",
    "version": "0.4.26+commit.4563c3fc.Emscripten.clang"
  },
  "schemaVersion": "3.0.5",
  "updatedAt": "2020-08-30T21:03:57.577Z",
  "devdoc": {
    "methods": {
      "recoverAnyERC20Token(address,uint256)": {
        "details": "Owner can transfer out (recover) any ERC20 tokens accidentally sent to this contract.",
        "params": {
          "tokenAddress": "Token contract address we want to recover lost tokens from.",
          "tokens": "Amount of tokens to be recovered, usually the same as the balance of this contract."
        },
        "return": "bool"
      }
    }
  },
  "userdoc": {
    "methods": {}
  }
}