{
  "contractName": "OrFeedTest",
  "abi": [
    {
      "constant": true,
      "inputs": [],
      "name": "exRate",
      "outputs": [
        {
          "name": "",
          "type": "uint256"
        }
      ],
      "payable": false,
      "stateMutability": "view",
      "type": "function",
      "signature": "0x7ec7115e"
    },
    {
      "inputs": [],
      "payable": false,
      "stateMutability": "nonpayable",
      "type": "constructor",
      "signature": "constructor"
    },
    {
      "constant": false,
      "inputs": [
        {
          "name": "_exRate",
          "type": "uint256"
        }
      ],
      "name": "setExRate",
      "outputs": [],
      "payable": false,
      "stateMutability": "nonpayable",
      "type": "function",
      "signature": "0x77d47644"
    },
    {
      "constant": true,
      "inputs": [
        {
          "name": "fromSymbol",
          "type": "string"
        },
        {
          "name": "toSymbol",
          "type": "string"
        },
        {
          "name": "venue",
          "type": "string"
        },
        {
          "name": "amount",
          "type": "uint256"
        }
      ],
      "name": "getExchangeRate",
      "outputs": [
        {
          "name": "",
          "type": "uint256"
        }
      ],
      "payable": false,
      "stateMutability": "view",
      "type": "function",
      "signature": "0x667e9394"
    },
    {
      "constant": true,
      "inputs": [
        {
          "name": "tokenAddress",
          "type": "address"
        }
      ],
      "name": "getTokenDecimalCount",
      "outputs": [
        {
          "name": "",
          "type": "uint256"
        }
      ],
      "payable": false,
      "stateMutability": "view",
      "type": "function",
      "signature": "0xb7792d8f"
    },
    {
      "constant": true,
      "inputs": [
        {
          "name": "symbol",
          "type": "string"
        }
      ],
      "name": "getTokenAddress",
      "outputs": [
        {
          "name": "",
          "type": "address"
        }
      ],
      "payable": false,
      "stateMutability": "view",
      "type": "function",
      "signature": "0xc4091236"
    },
    {
      "constant": true,
      "inputs": [
        {
          "name": "symbol",
          "type": "string"
        }
      ],
      "name": "getSynthBytes32",
      "outputs": [
        {
          "name": "",
          "type": "bytes32"
        }
      ],
      "payable": false,
      "stateMutability": "view",
      "type": "function",
      "signature": "0xe696303d"
    },
    {
      "constant": true,
      "inputs": [
        {
          "name": "symbol",
          "type": "string"
        }
      ],
      "name": "getForexAddress",
      "outputs": [
        {
          "name": "",
          "type": "address"
        }
      ],
      "payable": false,
      "stateMutability": "view",
      "type": "function",
      "signature": "0xf3ecd7f6"
    }
  ],
  "bytecode": "0x608060405234801561001057600080fd5b506313697b806000556103ba806100286000396000f3006080604052600436106100825763ffffffff7c0100000000000000000000000000000000000000000000000000000000600035041663667e9394811461008757806377d47644146100d45780637ec7115e146100ee578063b7792d8f14610103578063c409123614610131578063e696303d1461017a578063f3ecd7f614610131575b600080fd5b34801561009357600080fd5b506100c2602460048035828101929082013591813580830192908201359160443591820191013560643561019a565b60408051918252519081900360200190f35b3480156100e057600080fd5b506100ec6004356101d5565b005b3480156100fa57600080fd5b506100c261024b565b34801561010f57600080fd5b506100c273ffffffffffffffffffffffffffffffffffffffff60043516610251565b34801561013d57600080fd5b506101516004803560248101910135610251565b6040805173ffffffffffffffffffffffffffffffffffffffff9092168252519081900360200190f35b34801561018657600080fd5b506100c26004803560248101910135610251565b60006101c9670de0b6b3a76400006101bd6000548561025890919063ffffffff16565b9063ffffffff61030b16565b98975050505050505050565b60005481141561024657604080517f08c379a000000000000000000000000000000000000000000000000000000000815260206004820152601560248201527f6e65772076616c75652069732072657175697265640000000000000000000000604482015290519081900360640190fd5b600055565b60005481565b6000806000fd5b818102821580610272575081838281151561026f57fe5b04145b151561030557604080517f08c379a000000000000000000000000000000000000000000000000000000000815260206004820152603060248201527f536166654d6174684c69622e6d756c3a207265717569726564202861203d3d2060448201527f30207c7c2063202f2061203d3d20622900000000000000000000000000000000606482015290519081900360840190fd5b92915050565b600080821161037b57604080517f08c379a000000000000000000000000000000000000000000000000000000000815260206004820152601f60248201527f536166654d6174684c69622e6469763a2072657175697265642062203e203000604482015290519081900360640190fd5b818381151561038657fe5b0493925050505600a165627a7a72305820054807cdb96ac7509ea13ee1e4e55e01edb8916162e9b57d189a32e92ced11ba0029",
  "source": "pragma solidity ^0.4.26;\r\n\r\nimport \"./SafeMathLib.sol\";\r\nimport \"./OrFeedInterface.sol\";\r\n\r\n// ----------------------------------------------------------------------------\r\n// Oracle Feed Test contract for unit testing\r\n//\r\n// ----------------------------------------------------------------------------\r\n\r\ncontract OrFeedTest is OrFeedInterface\r\n{\r\n\tusing SafeMathLib for uint;\r\n\tuint public exRate; //1 ETH priced in USDT as 325680000 (with 6 decimals)\r\n\t\r\n\t// ------------------------------------------------------------------------\r\n    // Constructor\r\n    // ------------------------------------------------------------------------\r\n    constructor() public\r\n\t{\r\n\t\texRate = 325680000;\r\n    }\r\n\t\r\n\tfunction setExRate(uint _exRate) public {\r\n\t\trequire(exRate != _exRate, \"new value is required\");\r\n\t\texRate = _exRate;\r\n\t}\r\n\t\r\n\t// this is test function and only returns price for ETH/USD and \"DEFAULT\" venue\r\n\tfunction getExchangeRate( string fromSymbol,\r\n\t\t\t\t\t\t\tstring toSymbol,\r\n\t\t\t\t\t\t\tstring venue,\r\n\t\t\t\t\t\t\tuint256 amount )\r\n\t\t\t\t\t\texternal view returns ( uint256 )\r\n\t{\r\n\t\t//require(fromSymbol == \"ETH\", \"invalid fromSymbol\");\r\n\t\t//require(toSymbol == \"USDT\", \"invalid toSymbol\");\r\n\t\t//require(venue == \"DEFAULT\", \"invalid venue\");\r\n\t\treturn (amount.mul(exRate).div(10**18));\r\n\t}\r\n\t\r\n\tfunction getTokenDecimalCount ( address tokenAddress ) external view returns ( uint256 ) {\r\n\t\trevert();\r\n\t}\r\n\t\r\n\tfunction getTokenAddress ( string symbol ) external view returns ( address ) {\r\n\t\trevert();\r\n\t}\r\n\t\r\n\tfunction getSynthBytes32 ( string symbol ) external view returns ( bytes32 ) {\r\n\t\trevert();\r\n\t}\r\n\t\r\n\tfunction getForexAddress ( string symbol ) external view returns ( address ) {\r\n\t\trevert();\r\n\t}\r\n\t\r\n\t/*function arb(address  fundsReturnToAddress,\r\n\t\t\t\taddress liquidityProviderContractAddress,\r\n\t\t\t\tstring[] tokens,\r\n\t\t\t\tuint256 amount,\r\n\t\t\t\tstring[] exchanges)\r\n\t\t\texternal payable returns (bool)\r\n\t{\r\n\t\trevert();\r\n\t}*/\r\n}",
  "sourcePath": "C:/Users/Homeuser/Desktop/FITH-token-sale-v0.4.26/contracts/OrFeedTest.sol",
  "compiler": {
    "name": "solc",
    "version": "0.4.26+commit.4563c3fc.Emscripten.clang"
  },
  "schemaVersion": "3.0.5",
  "updatedAt": "2020-08-30T21:03:57.621Z",
  "devdoc": {
    "methods": {}
  },
  "userdoc": {
    "methods": {}
  }
}