{
  "contractName": "Owned",
  "abi": [
    {
      "constant": true,
      "inputs": [],
      "name": "owner",
      "outputs": [
        {
          "name": "",
          "type": "address"
        }
      ],
      "payable": false,
      "stateMutability": "view",
      "type": "function"
    },
    {
      "inputs": [],
      "payable": false,
      "stateMutability": "nonpayable",
      "type": "constructor"
    }
  ],
  "bytecode": "0x608060405234801561001057600080fd5b5060008054600160a060020a0319163317905560c6806100316000396000f300608060405260043610603e5763ffffffff7c01000000000000000000000000000000000000000000000000000000006000350416638da5cb5b81146043575b600080fd5b348015604e57600080fd5b506055607e565b6040805173ffffffffffffffffffffffffffffffffffffffff9092168252519081900360200190f35b60005473ffffffffffffffffffffffffffffffffffffffff16815600a165627a7a723058203b6369d6296f4acc02413c8e42f809daca86fc68c4061eb574a7094b4228a3ba0029",
  "source": "pragma solidity ^0.4.26;\r\n\r\ncontract Owned {\r\n\t\r\n\taddress public owner;\r\n\t\r\n    constructor() public\r\n\t{\r\n\t\towner = msg.sender;\r\n\t}\r\n\t\r\n    // This contract only defines a modifier but it will be used in derived contracts.\r\n    modifier onlyOwner() {\r\n        require(msg.sender == owner, \"Owner required\");\r\n        _;\r\n    }\r\n}",
  "sourcePath": "C:\\Users\\Homeuser\\Desktop\\FITH-token-sale-v0.4.26\\contracts\\Owned.sol",
  "compiler": {
    "name": "solc",
    "version": "0.4.26+commit.4563c3fc.Emscripten.clang"
  },
  "schemaVersion": "3.0.5",
  "updatedAt": "2020-08-30T21:03:52.146Z",
  "devdoc": {
    "methods": {}
  },
  "userdoc": {
    "methods": {}
  }
}